:100000000C9472000C949A000C949A000C949A0030
:100010000C949A000C949A000C949A000C949A00F8
:100020000C949A000C949A000C949A000C949A00E8
:100030000C949A000C949A000C949A000C949A00D8
:100040000C94E8060C949A000C949A000C949A0074
:100050000C949A000C949A000C949A000C949A00B8
:100060000C949A000C949A000000000023002600D3
:100070002900005EBCE2613FDD83C29C7E20A3FDBF
:100080001F41009D23BE46DB65F88C11AF32CA5775
:10009000E97400000000240027002A00000000008E
:1000A000250028002B0004040404040404040202B4
:1000B00002020202030303030303010204081020E7
:1000C00040800102040810200102040810200000F2
:1000D0000008000201000003040700000000000007
:1000E0000000830811241FBECFEFD8E0DEBFCDBFD4
:1000F00011E0A0E0B1E0ECEFF6E102C005900D9256
:10010000A635B107D9F721E0A6E5B1E001C01D92FF
:10011000A93AB207E1F710E0C2E7D0E004C02197A6
:10012000FE010E94710BC137D107C9F70E94320747
:100130000C947C0B0C94000090E0FC01E253FF4F08
:100140002491FC01E654FF4F3491FC01EA55FF4F26
:10015000E491EE2309F43CC0222339F1233091F0DD
:1001600038F42130A9F0223001F584B58F7D12C01A
:10017000273091F02830A1F02430B9F4809180002C
:100180008F7D03C0809180008F77809380000DC0A9
:1001900084B58F7784BD09C08091B0008F7703C08C
:1001A0008091B0008F7D8093B000F0E0EE0FFF1FD4
:1001B000E456FF4FA591B4919FB7F894611104C024
:1001C0008C913095382302C0EC913E2B3C939FBF1D
:1001D0000895CF93DF9390E0FC01E654FF4F249104
:1001E000FC01EA55FF4F8491882361F190E0880F6C
:1001F000991FFC01EE56FF4FC591D491FC01E456C6
:10020000FF4FA591B491611109C09FB7F8948881FF
:10021000209582238883EC912E230BC0623061F4F9
:100220009FB7F8948881322F309583238883EC918F
:100230002E2B2C939FBF06C08FB7F894E8812E2BEE
:1002400028838FBFDF91CF910895789484B5826021
:1002500084BD84B5816084BD85B5826085BD85B56A
:10026000816085BDEEE6F0E0808181608083E1E819
:10027000F0E0108280818260808380818160808351
:10028000E0E8F0E0808181608083E1EBF0E0808154
:1002900084608083E0EBF0E0808181608083EAE726
:1002A000F0E08081846080838081826080838081AF
:1002B000816080838081806880831092C10008956E
:1002C0003FB7F8948091790190917A01A0917B01D8
:1002D000B0917C0126B5A89B05C02F3F19F001966F
:1002E000A11DB11D3FBFBA2FA92F982F8827820FBC
:1002F000911DA11DB11DBC01CD0142E0660F771F0C
:10030000881F991F4A95D1F708958F929F92AF92B7
:10031000BF92CF92DF92EF92FF926B017C010E941D
:1003200060014B015C01C114D104E104F104F1F05E
:100330000E946001DC01CB0188199909AA09BB0957
:10034000883E9340A105B10570F321E0C21AD1089F
:10035000E108F10888EE880E83E0981EA11CB11C0C
:10036000C114D104E104F10419F7DDCFFF90EF903F
:10037000DF90CF90BF90AF909F908F9008952FB750
:10038000F894609175017091760180917701909158
:1003900078012FBF0895CF92DF92EF92FF920F93D3
:1003A0001F93CF93DF936C017A018B01C0E0D0E003
:1003B000CE15DF0581F0D8016D918D01D601ED914B
:1003C000FC910190F081E02DC6010995892B11F077
:1003D0002196EECF7E01C701DF91CF911F910F9142
:1003E000FF90EF90DF90CF900895DC0180E06150A6
:1003F00098F02D91982F9227E92FEF70F0E0EE58AA
:10040000FF4F249192959F70E92FF0E0EE57FF4F38
:10041000E491822F8E27EBCF0895FC01908101801B
:10042000F281E02DF8948181892B81832281892FAB
:10043000809528232283A7E0B0E01197F1F721816E
:1004400082238183A3E2B0E01197F1F78081789451
:10045000EFECF0E03197F1F7982381E009F480E0C8
:100460000895FC0190810180F281E02D892F809513
:1004700060FF12C0F8942281822382838181892BBC
:100480008183A3E2B0E01197F1F78281982B9283E8
:10049000789487ED90E011C0F894228182238283C2
:1004A0008181892B8183AFEFB0E01197F1F78281D1
:1004B000982B928378948FE090E00197F1F708955C
:1004C000DF92EF92FF920F931F93CF93DF93EC0194
:1004D000D62EE42E08E010E0FF24F39461E08D2D89
:1004E0008F2109F460E0CE010E943102FF0C01501F
:1004F0001109A1F7E11010C0F894E981FA81918106
:100500008881809589238183E981FA81928188811C
:100510008095892382837894DF91CF911F910F91E9
:10052000FF90EF90DF900895DC012C911196ED91F2
:10053000FC911297F8948181922F90958923818361
:1005400078948DE743E050E0815021F1DA01119772
:10055000F1F730813223C1F3F894828189238283B9
:100560008181822B81837894ABE7B7E01197F1F713
:10057000F89481819823918383E191E00197F1F7C9
:100580008081282381E009F080E07894E3E6F6E0BA
:100590003197F1F708954F925F926F927F928F9209
:1005A0009F92AF92BF92CF92DF92EF92FF920F9302
:1005B0001F93CF93DF93CDB7DEB729970FB6F8948B
:1005C000DEBF0FBECDBF8C0180918301909184016D
:1005D0000E949402882309F481C0C0908301D090C6
:1005E000840140E065E5C6010E946002780158017F
:1005F00028E0A20EB11CF70161917F0140E0C60125
:100600000E946002AE14BF04B1F740E06EEB80912F
:100610008301909184010E946002AE014F5F5F4FA1
:100620007A015E015AE0A50EB11C2701809083017A
:100630009090840178E0672E712CD12CCC24C39447
:10064000C4010E940D028111DC28CC0C81E0681AE3
:100650007108B1F7F701D1927F01AE16BF0631F7ED
:1006600080918301909184010E9494028130B1F5C0
:1006700068E0C2010E94F501998589132FC02A8183
:1006800030E0A901542F4427550F550F550F89818C
:10069000F8E08F9FC00111249A01282B392BF80113
:1006A00080818031C9F4688570E08F81AB01481B7F
:1006B0005109CA019695982F8827979587950E948A
:1006C000270BCB014097207F53E0220F331F5A9511
:1006D000E1F7820F931F04C0C90102C080E894EEC5
:1006E00029960FB6F894DEBF0FBECDBFDF91CF9134
:1006F0001F910F91FF90EF90DF90CF90BF90AF9040
:100700009F908F907F906F905F904F900895CF93C0
:10071000DF93EC0160E08E810E949C0061E08E819D
:100720000E949C0060E08E810E949C008BE891E01A
:100730000197F1F7DF91CF910895CF92DF92EF9279
:10074000FF920F931F93CF93DF936C017C0187E09F
:10075000E80EF11CC0E0D0E0062F10E0B8010C2E2E
:1007600002C0759567950A94E2F76170F70181916F
:100770007F010E949C002196C430D10579F7C60103
:10078000DF91CF911F910F91FF90EF90DF90CF906D
:100790000C948703CF92DF92EF92FF920F931F93F7
:1007A000CF93DF93EC01F62E642F8C810E949C0086
:1007B0008D818F3F19F060E00E949C008F850F2D86
:1007C00010E084FF25C06E0187E0C80ED11CE12C2B
:1007D000F12CB8010E2C02C0759567950A94E2F7CA
:1007E0006170F60181916F010E949C00FFEFEF1A8A
:1007F000FF0A88E0E816F10461F7CE01DF91CF919E
:100800001F910F91FF90EF90DF90CF900C94870392
:10081000B80184E0759567958A95E1F7CE010E944D
:100820009D036F2DCE01DF91CF911F910F91FF900E
:10083000EF90DF90CF900C949D0340E0682F81E90A
:1008400091E00C94CA03CF93DF93823028F090910B
:10085000A00198609093A0018093A4011092A5013B
:1008600080E48093A60180E18093A70180E58093D6
:10087000A80161E0809195010E94E90080919601B4
:100880008F3F19F061E00E94E90061E080919701DB
:100890000E94E900C1E9D1E09E01215931408091D7
:1008A000A00184FD03C084E090E002C088E090E0F5
:1008B0002196281739072CF461E08E810E94E90007
:1008C000EBCF8BE39DE00197F1F760E0809195011C
:1008D0000E949C0060E0809197010E949C008091A2
:1008E00096018F3F19F060E00E949C008091A0016A
:1008F00084FD20C063E081E991E00E949D03CBE488
:10090000D6E4CE010197F1F763E081E991E00E941E
:100910009D032197F1F763E081E991E00E949D0337
:1009200083E592E00197F1F762E081E991E00E94AE
:100930009D0315C080620E941D048BE496E401971C
:10094000F1F78091A00180620E941D0483E592E08E
:100950000197F1F78091A00180620E941D048091AF
:10096000A00180620E941D0484E08093A1018CE0BC
:100970000E941D0481E00E941D048BE39FE101970A
:10098000F1F782E08093A20186E0DF91CF910C9491
:100990001D04643008F063E09091A401691710F021
:1009A0006FEF690FE62FF0E0EF56FE4F9489890F45
:1009B00080680C941D0441E00E94CA0381E090E02D
:1009C00008950F931F93CF93DF938B01877028E0D7
:1009D000829FC001112480640E941D04E801085F09
:1009E0001F4F699181E991E00E94DB04C017D10794
:1009F000C1F7DF91CF911F910F910895089580E085
:100A000090E00895009769F0FC0101900020E9F75B
:100A10003197AF01481B590BBC0181E991E00C945F
:100A2000CB0180E090E008952F923F924F925F9229
:100A30006F927F928F929F92AF92BF92CF92DF92EE
:100A4000EF92FF920F931F93CF93DF93CDB7DEB753
:100A5000A5970FB6F894DEBF0FBECDBF4B015C016A
:100A6000F42E9B01AC010E94220B882319F082E333
:100A700091E027C024013501E89477F82FEF3FEF8C
:100A80004FE75FE7C301B2010E94220B81110DC045
:100A90002FEF3FEF4FE75FE7C301B2010E94580914
:100AA00018161CF486E391E00CC02FEF3FEF4FE7E0
:100AB0005FE4C501B4010E94B00A18162CF48AE361
:100AC00091E00E940205BEC02FEF3FEF4FE75FECC1
:100AD000C501B4010E94580987FDF1CF20E030E044
:100AE000A901C501B4010E94580987FF0FC041E068
:100AF0006DE281E991E00E94CA03B7FAB094B7F8B9
:100B0000B09481E090E09BA38AA302C01BA21AA22A
:100B100010E060E070E080E09FE3F11641F020E03B
:100B200030E040E251E40E945D091F5FF6CFA5016D
:100B300094010E94EC084B015C010E94CF09762EC3
:100B4000C72ED82EE92E19A2262F372F482F592F1E
:100B50008E010F5D1F4F0CA3612E9AE0292E312CC0
:100B6000412C512CCA01B901A20191010E943B0BF9
:100B7000605DF80162938F01211531054105510532
:100B800089F7CF010E9402050AA11BA1080F191FB6
:100B9000FF2009F456C0672D7C2D8D2D9E2D0E94BF
:100BA000FE099B01AC01C501B4010E94EB084B0199
:100BB0005C0141E06EE281E991E00E94CA030F5FAF
:100BC0001F4F8AE0282E312C412C512C20E030E0A0
:100BD00040E251E4C501B4010E94B50A4B015C0139
:100BE0000E94CF099B0140E050E019A2CCA0D62C76
:100BF000762E3AA34DA3E52ECA01B901A2019101B7
:100C00000E943B0B605DF60162936F012115310577
:100C10004105510589F7CF010E940205080F191FF0
:100C2000672D7AA18DA19E2D0E94FE099B01AC012A
:100C3000C501B4010E94EB084B015C01FA94F1106C
:100C4000C5CFC801A5960FB6F894DEBF0FBECDBFC5
:100C5000DF91CF911F910F91FF90EF90DF90CF9098
:100C6000BF90AF909F908F907F906F905F904F90CC
:100C70003F902F9008958F929F92AF92BF92CF9204
:100C8000DF92EF92FF920F931F93CF93DF937C013C
:100C9000A62EE0918301F0918401138615861486B7
:100CA000DF011B9633961E92AE17BF07E1F7B12CFA
:100CB00088248394C0918301D09184018D85811112
:100CC00063C0CE010E949402882309F45DC040E015
:100CD00060EFCE010E94600201E0C12C912C11E076
:100CE000CE010E940D02D82ECE010E940D0291E08D
:100CF000D91203C08130B1F434C02C2D30E0D812A9
:100D00001BC08B85181738F4FE01E20FF31F838197
:100D1000802341F402C0811729F0D12C193058F4F6
:100D20001C8709C0FE01EC0DF11D8381802B83839C
:100D3000DD24D39409C0912EFE01E20FF31F9381AD
:100D4000802F8095892383836D2DCE010E943102EF
:100D50001F5F000F11F4C39401E0E7E0EC1508F009
:100D6000BFCF113488F09B86911001C08D868B8196
:100D7000882351F0FE013396D7012B9681918D93F4
:100D8000EC17FD07D9F705C01B861D861C8680E081
:100D900010C0AB100AC067E0C7010E94F501F7015F
:100DA0009781891302C081E004C0B394AB1478F337
:100DB00081CFDF91CF911F910F91FF90EF90DF9046
:100DC000CF90BF90AF909F908F9008950E94770B27
:100DD0001F920F920FB60F9211242F933F938F9370
:100DE0009F93AF93BF938091750190917601A091ED
:100DF0007701B09178013091740123E0230F2D37F2
:100E000020F40196A11DB11D05C026E8230F02960E
:100E1000A11DB11D209374018093750190937601FB
:100E2000A0937701B09378018091790190917A0134
:100E3000A0917B01B0917C010196A11DB11D809311
:100E4000790190937A01A0937B01B0937C01BF91CB
:100E5000AF919F918F913F912F910F900FBE0F9067
:100E60001F901895CF93DF93CDB7DEB728970FB6B5
:100E7000F894DEBF0FBECDBF0E94250182E00E9424
:100E8000230468E171E080E00E94E10460E171E028
:100E900081E00E94E10468E071E082E00E94E104E8
:100EA00060E071E083E00E94E10460E084E00E9481
:100EB000C9048EE391E00E94020561E082E00E9495
:100EC000C90488E491E00E94020568EE73E080E0C6
:100ED00090E00E9485010E94250181E00E941D048E
:100EE0008BE39FE10197F1F700E010E00E94BF0162
:100EF000C0907001D0907101E0907201F090730188
:100F0000DC01CB018C199D09AE09BF09813D9740D9
:100F1000A105B10508F4B2C00E94BF016093700141
:100F2000709371018093720190937301809183019A
:100F3000909184010E94940240E06CEC80918301C6
:100F4000909184010E94600240917D0164E480914F
:100F50008301909184010E94600280917F01882327
:100F6000E9F1E0917E01E950E33040F4F0E0EE0F6A
:100F7000FF1FE45DFE4FC080D18004C08EEEC82EFE
:100F800082E0D82E80918001882311F180917D012B
:100F900081111EC00E94BF014B015C010D2C000C91
:100FA000EE08FF0880918301909184010E940D0258
:100FB0008130A1F00E94BF01DC01CB018C199D0999
:100FC000AE09BF0988159905AA05BB0558F306C0E7
:100FD000B601DD0C880B990B0E94850160E0CE0103
:100FE00001960E943B06811105C060E070E08EEF23
:100FF00092EC14C0CE0101960E94CB02813824EEFF
:1010000092079CF3BC01990F880B990B0E94000A70
:1010100020E030E040E05CE30E94B50A60936C01A0
:1010200070936D0180936E0190936F0161E0CE012A
:1010300001960E943B06811105C060E070E08EEFD2
:1010400092EC14C0CE0101960E94CB02813824EEAE
:1010500092079CF3BC01990F880B990B0E94000A20
:1010600020E030E040E05CE30E94B50A6093680154
:101070007093690180936A0190936B010E94BF0194
:10108000C0906401D0906501E0906601F090670126
:10109000DC01CB018C199D09AE09BF09893C910582
:1010A000A105B10550F00E94BF01609364017093E7
:1010B000650180936601909367010E94BF01C09013
:1010C0006401D0906501E0906601F0906701DC0159
:1010D000CB018C199D09AE09BF09853F9140A1053F
:1010E000B10550F00E94BF016093640170936501E7
:1010F00080936601909367010115110509F4F6CEFE
:101100000E940000F3CE60E088E00E94E900E2EC7B
:10111000F0E0E491E0935601EEEAF0E0E491F0E0D3
:10112000EE0FFF1FE859FF4F85919491909358015E
:101130008093570110926101109263011092620135
:10114000E1E6F1E0129281E0E935F807D9F786E5AA
:1011500091E0909384018093830110928101109219
:10116000820110927D0189E080937E0181E080936D
:101170007F01809380011092900110928F01109254
:1011800094011092930184E291E0909392018093F4
:10119000910182E0809395018FEF8093960183E027
:1011A0008093970184E08093980185E08093990172
:1011B00086E080939A0187E080939B0110929C01C6
:1011C00010929D0110929E0110929F011092A00119
:1011D00081E00C9423045058BB27AA270E940309DE
:1011E0000C94760A0E94680A38F00E946F0A20F078
:1011F00039F49F3F19F426F40C94650A0EF4E09537
:10120000E7FB0C945F0AE92F0E94870A58F3BA178C
:10121000620773078407950720F079F4A6F50C940C
:10122000A90A0EF4E0950B2EBA2FA02D0B01B901DF
:1012300090010C01CA01A0011124FF27591B99F04C
:10124000593F50F4503E68F11A16F040A22F232F58
:10125000342F4427585FF3CF469537952795A795A8
:10126000F0405395C9F77EF41F16BA0B620B730B4F
:10127000840BBAF09150A1F0FF0FBB1F661F771FC0
:10128000881FC2F70EC0BA0F621F731F841F48F475
:10129000879577956795B795F7959E3F08F0B0CFFE
:1012A0009395880F08F09927EE0F979587950895E5
:1012B0000E943B0A08F481E008950E9471090C9491
:1012C000760A0E946F0A58F00E94680A40F029F4DA
:1012D0005F3F29F00C945F0A51110C94AA0A0C94F8
:1012E000650A0E94870A68F39923B1F3552391F3A5
:1012F000951B550BBB27AA2762177307840738F085
:101300009F5F5F4F220F331F441FAA1FA9F335D0E1
:101310000E2E3AF0E0E832D091505040E695001C95
:10132000CAF72BD0FE2F29D0660F771F881FBB1F4F
:10133000261737074807AB07B0E809F0BB0B802D2D
:10134000BF01FF2793585F4F3AF09E3F510578F059
:101350000C945F0A0C94AA0A5F3FE4F3983ED4F31E
:10136000869577956795B795F7959F5FC9F7880F2D
:10137000911D9695879597F90895E1E0660F771F7F
:10138000881FBB1F621773078407BA0720F0621B10
:10139000730B840BBA0BEE1F88F7E09508950E943B
:1013A0008F0A88F09F5798F0B92F9927B751B0F05E
:1013B000E1F0660F771F881F991F1AF0BA95C9F7D9
:1013C00014C0B13091F00E94A90AB1E008950C94C4
:1013D000A90A672F782F8827B85F39F0B93FCCF377
:1013E000869577956795B395D9F73EF49095809556
:1013F000709561957F4F8F4F9F4F0895E89409C076
:1014000097FB3EF490958095709561957F4F8F4F37
:101410009F4F9923A9F0F92F96E9BB279395F6954D
:10142000879577956795B795F111F8CFFAF4BB0FCB
:1014300011F460FF1BC06F5F7F4F8F4F9F4F16C02F
:10144000882311F096E911C0772321F09EE8872FB9
:10145000762F05C0662371F096E8862F70E060E075
:101460002AF09A95660F771F881FDAF7880F9695EE
:10147000879597F90895990F0008550FAA0BE0E892
:10148000FEEF16161706E807F907C0F01216130646
:10149000E407F50798F0621B730B840B950B39F486
:1014A0000A2661F0232B242B252B21F408950A26EC
:1014B00009F4A140A6958FEF811D811D089597F92C
:1014C0009F6780E870E060E008959FEF80EC0895EA
:1014D00000240A9416161706180609060895002413
:1014E0000A9412161306140605060895092E03948D
:1014F000000C11F4882352F0BB0F40F4BF2B11F401
:1015000060FF04C06F5F7F4F8F4F9F4F089557FD5F
:101510009058440F551F59F05F3F71F04795880F61
:1015200097FB991F61F09F3F79F0879508951216F8
:1015300013061406551FF2CF4695F1DF08C01616A4
:1015400017061806991FF1CF869571056105089455
:101550000895E894BB2766277727CB0197F908956C
:101560000E943B0A08F48FEF08950E94C80A0C9469
:10157000760A0E94680A38F00E946F0A20F09523CC
:1015800011F00C945F0A0C94650A11240C94AA0AB9
:101590000E94870A70F3959FC1F3950F50E0551F85
:1015A000629FF001729FBB27F00DB11D639FAA27B8
:1015B000F00DB11DAA1F649F6627B00DA11D661F07
:1015C000829F2227B00DA11D621F739FB00DA11D28
:1015D000621F839FA00D611D221F749F3327A00DE2
:1015E000611D231F849F600D211D822F762F6A2F7E
:1015F00011249F5750409AF0F1F088234AF0EE0FE3
:10160000FF1FBB1F661F771F881F91505040A9F70F
:101610009E3F510580F00C945F0A0C94AA0A5F3F2C
:10162000E4F3983ED4F3869577956795B795F7954B
:10163000E7959F5FC1F7FE2B880F911D96958795C3
:1016400097F908950E943B0A880B990B089597FB20
:10165000072E16F4009407D077FD09D00E945D0B89
:1016600007FC05D03EF4909581959F4F08957095A5
:1016700061957F4F0895A1E21A2EAA1BBB1BFD01A5
:101680000DC0AA1FBB1FEE1FFF1FA217B307E40761
:10169000F50720F0A21BB30BE40BF50B661F771FB9
:1016A000881F991F1A9469F7609570958095909599
:1016B0009B01AC01BD01CF010895AA1BBB1B51E1E9
:1016C00007C0AA1FBB1FA617B70710F0A61BB70BB2
:1016D000881F991F5A95A9F780959095BC01CD0157
:1016E0000895EE0FFF1F0590F491E02D099481E01D
:0C16F00090E0F8940C947C0BF894FFCF71
:1016FC00070604040C1C00000010181F0301000056
:10170C001F1111111111111F03060C1F03161C1EA2
:10171C0000000000DB04CB01FF04FE045E00BC00F3
:10172C0077016E616E00696E66006F7666004241ED
:10173C0042494E47544F4E004558504552494D452D
:06174C004E54414C210047
:00000001FF
