:100000000C9472000C949A000C949A000C949A0030
:100010000C949A000C949A000C949A000C949A00F8
:100020000C949A000C949A000C949A000C949A00E8
:100030000C949A000C949A000C949A000C949A00D8
:100040000C94E7060C949A000C949A000C949A0075
:100050000C949A000C949A000C949A000C949A00B8
:100060000C949A000C949A000000000023002600D3
:100070002900005EBCE2613FDD83C29C7E20A3FDBF
:100080001F41009D23BE46DB65F88C11AF32CA5775
:10009000E97400000000240027002A00000000008E
:1000A000250028002B0004040404040404040202B4
:1000B00002020202030303030303010204081020E7
:1000C00040800102040810200102040810200000F2
:1000D0000008000201000003040700000000000007
:1000E0000000130911241FBECFEFD8E0DEBFCDBF43
:1000F00011E0A0E0B1E0EAE2F8E102C005900D9263
:10010000A036B107D9F721E0A0E6B1E001C01D9209
:10011000A13CB207E1F710E0C2E7D0E004C02197AC
:10012000FE010E94080CC137D107C9F70E943107B0
:100130000C94130C0C94000090E0FC01E253FF4F70
:100140002491FC01E654FF4F3491FC01EA55FF4F26
:10015000E491EE2309F43CC0222339F1233091F0DD
:1001600038F42130A9F0223001F584B58F7D12C01A
:10017000273091F02830A1F02430B9F4809180002C
:100180008F7D03C0809180008F77809380000DC0A9
:1001900084B58F7784BD09C08091B0008F7703C08C
:1001A0008091B0008F7D8093B000F0E0EE0FFF1FD4
:1001B000E456FF4FA591B4919FB7F894611104C024
:1001C0008C913095382302C0EC913E2B3C939FBF1D
:1001D0000895CF93DF9390E0FC01E654FF4F249104
:1001E000FC01EA55FF4F8491882361F190E0880F6C
:1001F000991FFC01EE56FF4FC591D491FC01E456C6
:10020000FF4FA591B491611109C09FB7F8948881FF
:10021000209582238883EC912E230BC0623061F4F9
:100220009FB7F8948881322F309583238883EC918F
:100230002E2B2C939FBF06C08FB7F894E8812E2BEE
:1002400028838FBFDF91CF910895789484B5826021
:1002500084BD84B5816084BD85B5826085BD85B56A
:10026000816085BDEEE6F0E0808181608083E1E819
:10027000F0E0108280818260808380818160808351
:10028000E0E8F0E0808181608083E1EBF0E0808154
:1002900084608083E0EBF0E0808181608083EAE726
:1002A000F0E08081846080838081826080838081AF
:1002B000816080838081806880831092C10008956E
:1002C0003FB7F8948091910190919201A091930190
:1002D000B091940126B5A89B05C02F3F19F0019657
:1002E000A11DB11D3FBFBA2FA92F982F8827820FBC
:1002F000911DA11DB11DBC01CD0142E0660F771F0C
:10030000881F991F4A95D1F708958F929F92AF92B7
:10031000BF92CF92DF92EF92FF926B017C010E941D
:1003200060014B015C01C114D104E104F104F1F05E
:100330000E946001DC01CB0188199909AA09BB0957
:10034000883E9340A105B10570F321E0C21AD1089F
:10035000E108F10888EE880E83E0981EA11CB11C0C
:10036000C114D104E104F10419F7DDCFFF90EF903F
:10037000DF90CF90BF90AF909F908F9008952FB750
:10038000F89460918D0170918E0180918F01909110
:1003900090012FBF0895CF92DF92EF92FF920F93BB
:1003A0001F93CF93DF936C017A018B01C0E0D0E003
:1003B000CE15DF0581F0D8016D918D01D601ED914B
:1003C000FC910190F081E02DC6010995892B11F077
:1003D0002196EECF7E01C701DF91CF911F910F9142
:1003E000FF90EF90DF90CF900895DC0180E06150A6
:1003F00098F02D91982F9227E92FEF70F0E0EE58AA
:10040000FF4F249192959F70E92FF0E0EE57FF4F38
:10041000E491822F8E27EBCF0895FC01908101801B
:10042000F281E02DF8948181892B81832281892FAB
:10043000809528232283A7E0B0E01197F1F721816E
:1004400082238183A3E2B0E01197F1F78081789451
:10045000EFECF0E03197F1F7982381E009F480E0C8
:100460000895FC0190810180F281E02D892F809513
:1004700060FF12C0F8942281822382838181892BBC
:100480008183A3E2B0E01197F1F78281982B9283E8
:10049000789487ED90E011C0F894228182238283C2
:1004A0008181892B8183AFEFB0E01197F1F78281D1
:1004B000982B928378948FE090E00197F1F708955C
:1004C000DF92EF92FF920F931F93CF93DF93EC0194
:1004D000D62EE42E08E010E0FF24F39461E08D2D89
:1004E0008F2109F460E0CE010E943102FF0C01501F
:1004F0001109A1F7E11010C0F894E981FA81918106
:100500008881809589238183E981FA81928188811C
:100510008095892382837894DF91CF911F910F91E9
:10052000FF90EF90DF900895DC012C911196ED91F2
:10053000FC911297F8948181922F90958923818361
:1005400078948DE743E050E0815021F1DA01119772
:10055000F1F730813223C1F3F894828189238283B9
:100560008181822B81837894ABE7B7E01197F1F713
:10057000F89481819823918383E191E00197F1F7C9
:100580008081282381E009F080E07894E3E6F6E0BA
:100590003197F1F70895CF93DF93EC0160E08E81FE
:1005A0000E949C0061E08E810E949C0060E08E8130
:1005B0000E949C008BE891E00197F1F7DF91CF91C9
:1005C0000895CF92DF92EF92FF920F931F93CF93F4
:1005D000DF936C017C0187E0E80EF11CC0E0D0E005
:1005E000062F10E0B8010C2E02C0759567950A948D
:1005F000E2F76170F70181917F010E949C002196D2
:10060000C430D10579F7C601DF91CF911F910F91C9
:10061000FF90EF90DF90CF900C94CB02CF92DF92BF
:10062000EF92FF920F931F93CF93DF93EC01F62E7F
:10063000642F8C810E949C008D818F3F19F060E0B7
:100640000E949C008F850F2D10E084FF25C06E0155
:1006500087E0C80ED11CE12CF12CB8010E2C02C091
:10066000759567950A94E2F76170F60181916F01C3
:100670000E949C00FFEFEF1AFF0A88E0E816F104E1
:1006800061F7CE01DF91CF911F910F91FF90EF9015
:10069000DF90CF900C94CB02B80184E075956795FC
:1006A0008A95E1F7CE010E94E1026F2DCE01DF9124
:1006B000CF911F910F91FF90EF90DF90CF900C940E
:1006C000E10240E0682F89EA91E00C940E03CF9399
:1006D000DF93823028F09091B80198609093B80130
:1006E0008093BC011092BD0180E48093BE0180E143
:1006F0008093BF0180E58093C00161E08091AD01EE
:100700000E94E9008091AE018F3F19F061E00E94E4
:10071000E90061E08091AF010E94E900C9EAD1E0FF
:100720009E01295A31408091B80184FD03C084E0C4
:1007300090E002C088E090E02196281739072CF459
:1007400061E08E810E94E900EBCF8BE39DE0019791
:10075000F1F760E08091AD010E949C0060E0809123
:10076000AF010E949C008091AE018F3F19F060E0C4
:100770000E949C008091B80184FD20C063E089EA5A
:1007800091E00E94E102CBE4D6E4CE010197F1F7BB
:1007900063E089EA91E00E94E1022197F1F763E0CA
:1007A00089EA91E00E94E10283E592E00197F1F786
:1007B00062E089EA91E00E94E10215C080620E9435
:1007C00061038BE496E40197F1F78091B8018062B0
:1007D0000E94610383E592E00197F1F78091B801EF
:1007E00080620E9461038091B80180620E9461036F
:1007F00084E08093B9018CE00E94610381E00E9453
:1008000061038BE39FE10197F1F782E08093BA01E6
:1008100086E0DF91CF910C946103643008F063E0CF
:100820009091BC01691710F06FEF690FE62FF0E0AF
:10083000E755FE4F9489890F80680C94610341E06D
:100840000E940E0381E090E008950F931F93CF93D1
:10085000DF938B01877028E0829FC00111248064A0
:100860000E946103E801085F1F4F699189EA91E0E6
:100870000E941F04C017D107C1F7DF91CF911F91CC
:100880000F910895089580E090E00895009769F031
:10089000FC0101900020E9F73197AF01481B590B8B
:1008A000BC0189EA91E00C94CB0180E090E00895CE
:1008B0000C9446042F923F924F925F926F927F92D8
:1008C0008F929F92AF92BF92CF92DF92EF92FF9260
:1008D0000F931F93CF93DF93CDB7DEB7A5970FB6D6
:1008E000F894DEBF0FBECDBF4B015C01F42E9B011F
:1008F000AC010E94B90B882319F082E391E027C074
:1009000024013501E89477F82FEF3FEF4FE75FE7D9
:10091000C301B2010E94B90B81110DC02FEF3FEF4F
:100920004FE75FE7C301B2010E94E80918161CF403
:1009300086E391E00CC02FEF3FEF4FE75FE4C50186
:10094000B4010E94470B18162CF48AE391E00E9430
:100950004604BEC02FEF3FEF4FE75FECC501B40187
:100960000E94E80987FDF1CF20E030E0A901C50130
:10097000B4010E94E80987FF0FC041E06DE289EAF7
:1009800091E00E940E03B7FAB094B7F8B09481E0FA
:1009900090E09BA38AA302C01BA21AA210E060E011
:1009A00070E080E09FE3F11641F020E030E040E2AB
:1009B00051E40E94ED091F5FF6CFA50194010E944A
:1009C0007C094B015C010E94660A762EC72ED82E48
:1009D000E92E19A2262F372F482F592F8E010F5D90
:1009E0001F4F0CA3612E9AE0292E312C412C512C43
:1009F000CA01B901A20191010E94D20B605DF80108
:100A000062938F01211531054105510589F7CF0109
:100A10000E9446040AA11BA1080F191FFF2009F418
:100A200056C0672D7C2D8D2D9E2D0E94950A9B0111
:100A3000AC01C501B4010E947B094B015C0141E09E
:100A40006EE289EA91E00E940E030F5F1F4F8AE079
:100A5000282E312C412C512C20E030E040E251E492
:100A6000C501B4010E944C0B4B015C010E94660A57
:100A70009B0140E050E019A2CCA0D62C762E3AA3E0
:100A80004DA3E52ECA01B901A20191010E94D20B2A
:100A9000605DF60162936F01211531054105510535
:100AA00089F7CF010E944604080F191F672D7AA10C
:100AB0008DA19E2D0E94950A9B01AC01C501B40138
:100AC0000E947B094B015C01FA94F110C5CFC8016B
:100AD000A5960FB6F894DEBF0FBECDBFDF91CF91C4
:100AE0001F910F91FF90EF90DF90CF90BF90AF904C
:100AF0009F908F907F906F905F904F903F902F903E
:100B000008956F927F928F929F92AF92BF92CF92F1
:100B1000DF92EF92FF920F931F93CF93DF93CDB7A6
:100B2000DEB761970FB6F894DEBF0FBECDBFC82EFB
:100B3000E0919B01F0919C01138615861486DF01DC
:100B40001B9633961E92AE17BF07E1F7D12C99245E
:100B5000939400919B0110919C01F801858581116E
:100B60005EC0C8010E949402882309F458C040E086
:100B700060EFC8010E946002EE24E394A12C812C56
:100B8000FF24F394C8010E940D02B82EC8010E94F0
:100B90000D02F1E0BF1203C08130C1F437C02A2D2D
:100BA00030E0B8121DC0F8018385F81630F4E20F6A
:100BB000F31F83818E2151F402C08F1539F0B12CBF
:100BC000F8E0FF1560F0F801F48609C0F801EA0DBD
:100BD000F11D83818E298383BB24B39409C08F2C9C
:100BE000F801E20FF31F93818E2D80958923838373
:100BF0006B2DC8010E943102F394EE0C19F4A394FA
:100C0000EE24E394F7E0FA1508F0BCCF20E42F15AA
:100C100030F4F8018386811007C0958605C0F8017D
:100C20001386158614861FC0F80183818823B9F3C3
:100C300033967E012AE0E20EF11C055F1F4FD701BB
:100C4000570181918D93E017F107D9F7CD1007C0B7
:100C500067E0C7010E94F5019989891749F0D3948B
:100C6000CD1408F076CF60E070E08EEF92EC98C083
:100C700080919B0190919C010E949402882309F429
:100C80008CC000919B0110919C0140E065E5C8017A
:100C90000E9460026E01F2E1CF0ED11CF70161915A
:100CA0007F0140E0C8010E946002CE14DF04B1F76A
:100CB00040E06EEB80919B0190919C010E9460024C
:100CC000AE014F5F5F4F7A013A0180909B01909097
:100CD0009C0178E0C72ED12C10E001E0C4010E94F5
:100CE0000D028111102B000F51E0C51AD108B1F788
:100CF000F70111937F01AE16BF0639F780919B0172
:100D000090919C010E949402813009F046C068E0F5
:100D1000C3010E94F501998589133FC02A8130E003
:100D2000C901982F8827990F990F990F6981F8E0C9
:100D30006F9FB00111249C01262B372B8A858031AF
:100D4000C9F4688570E08F81AB01481B5109CA0165
:100D50009695982F8827979587950E94BE0B60518E
:100D60007109207F53E0220F331F5A95E1F7620F7C
:100D7000731F01C0B901613854EE75070CF473CFCD
:100D8000072E000C880B990B0E94970A20E030E098
:100D900040E05CE30E944C0B03C060E874EEEBCFD4
:100DA00061960FB6F894DEBF0FBECDBFDF91CF9135
:100DB0001F910F91FF90EF90DF90CF90BF90AF9079
:100DC0009F908F907F906F9008950E940E0C1F92BD
:100DD0000F920FB60F9211242F933F938F939F93EF
:100DE000AF93BF9380918D0190918E01A0918F015F
:100DF000B091900130918C0123E0230F2D3720F426
:100E00000196A11DB11D05C026E8230F0296A11D64
:100E1000B11D20938C0180938D0190938E01A0933E
:100E20008F01B09390018091910190919201A091D6
:100E30009301B09194010196A11DB11D8093910180
:100E400090939201A0939301B0939401BF91AF91BD
:100E50009F918F913F912F910F900FBE0F901F90F8
:100E600018950E94250182E00E94670368E171E005
:100E700080E00E94250460E171E081E00E94250489
:100E800068E071E082E00E94250460E071E083E0A8
:100E90000E94250460E084E00E940D048EE391E04E
:100EA0000E94580461E082E00E940D0488E491E011
:100EB0000E94580468EE73E080E090E00E94850193
:100EC0000E94250181E00E9461038BE39FE101976D
:100ED000F1F7C0E0D0E090E2892E9EE4992EA12C9B
:100EE000B12C0E94BF01C0908801D0908901E09090
:100EF0008A01F0908B01DC01CB018C199D09AE09B0
:100F0000BF09813D9740A105B10508F476C00E9454
:100F1000BF01609388017093890180938A01909347
:100F20008B0180919B0190919C010E94940240E072
:100F30006CEC80919B0190919C010E946002409119
:100F4000950164E480919B0190919C010E94600254
:100F5000809197018823D9F1E0919601E950E3301F
:100F600040F4F0E0EE0FFF1FE45DFE4F00811181C1
:100F700002C00EEE12E080919801882311F1809159
:100F8000950181111EC00E94BF012B013C01680127
:100F9000110FEE08FF0880919B0190919C010E9427
:100FA0000D028130A1F00E94BF01DC01CB018C1940
:100FB0009D09AE09BF0984159505A605B70558F327
:100FC00006C0B801110F880B990B0E94850180E0C3
:100FD0000E9481056093840170938501809386014E
:100FE0009093870181E00E94810560938001709356
:100FF000810180938201909383010E94BF01C09080
:101000007C01D0907D01E0907E01F0907F01DC01B9
:10101000CB018C199D09AE09BF09893C9105A10539
:10102000B10508F46EC00E94BF0160937C0170930B
:101030007D0180937E0190937F0160E080E00E94BB
:101040000D0486E591E00E9458046091840170913E
:101050008501809186019091870142E00E945A04A7
:1010600089E591E00E94580480916F01882341F046
:1010700060E089EA91E00E941F0410926F0107C0AE
:101080008AE591E00E94580481E080936F0161E05D
:1010900080E00E940D048CE591E00E94580460916C
:1010A000800170918101809182019091830142E0E1
:1010B0000E945A0489E591E00E94580480916E01D3
:1010C000882341F062E089EA91E00E941F041092B7
:1010D0006E0108C063E089EA91E00E941F0481E08C
:1010E00080936E01609178017091790180917A010D
:1010F00090917B0142E00E945A0489E591E00E94B0
:1011000058040E94BF01C0907401D0907501E09016
:101110007601F0907701DC01CB018C199D09AE09B5
:10112000BF09853F9140A105B10508F476C00E9432
:10113000BF01609374017093750180937601909361
:101140007701209184013091850140918601509171
:10115000870160E070E082E892E40E947B096B0105
:101160007C010E945F0A4090700150907101609074
:10117000720170907301DC01CB01840D951DA61DD9
:10118000B71D81322EE49207A105B1054CF480937E
:10119000700190937101A0937201B093730108C024
:1011A0008092700190927101A0927201B0927301CD
:1011B0008091700190917101A0917201B0917301C1
:1011C000803F984DAF4FBF4F64F480EF98EDAFEF85
:1011D000BFEF8093700190937101A0937201B0935F
:1011E0007301609170017091710180917201909111
:1011F00073010E94970A2FE632E143E85AE30E9406
:101200004C0BA70196010E947C09609378017093B2
:10121000790180937A0190937B01209709F461CE44
:101220000E9400005ECE60E088E00E94E900E2ECEF
:10123000F0E0E491E0936001EEEAF0E0E491F0E0A8
:10124000EE0FFF1FE859FF4F859194919093620133
:101250008093610110926B0110926D0110926C01EC
:10126000EBE6F1E0129281E0E336F807D9F780E689
:1012700091E090939C0180939B01109299011092B0
:101280009A011092950189E08093960181E0809304
:101290009701809398011092A8011092A7011092D3
:1012A000AC011092AB0184E291E09093AA0180938B
:1012B000A90182E08093AD018FEF8093AE0183E0BE
:1012C0008093AF0184E08093B00185E08093B10109
:1012D00086E08093B20187E08093B3011092B4015D
:1012E0001092B5011092B6011092B7011092B80198
:1012F00081E00C9467035058BB27AA270E949309EA
:101300000C940D0B0E94FF0A38F00E94060B20F08F
:1013100039F49F3F19F426F40C94FC0A0EF4E0957E
:10132000E7FB0C94F60AE92F0E941E0B58F3BA173C
:10133000620773078407950720F079F4A6F50C94EB
:10134000400B0EF4E0950B2EBA2FA02D0B01B90126
:1013500090010C01CA01A0011124FF27591B99F02B
:10136000593F50F4503E68F11A16F040A22F232F37
:10137000342F4427585FF3CF469537952795A79587
:10138000F0405395C9F77EF41F16BA0B620B730B2E
:10139000840BBAF09150A1F0FF0FBB1F661F771F9F
:1013A000881FC2F70EC0BA0F621F731F841F48F454
:1013B000879577956795B795F7959E3F08F0B0CFDD
:1013C0009395880F08F09927EE0F979587950895C4
:1013D0000E94D20A08F481E008950E94010A0C9448
:1013E0000D0B0E94060B58F00E94FF0A40F029F4F2
:1013F0005F3F29F00C94F60A51110C94410B0C94A8
:10140000FC0A0E941E0B68F39923B1F3552391F354
:10141000951B550BBB27AA2762177307840738F063
:101420009F5F5F4F220F331F441FAA1FA9F335D0C0
:101430000E2E3AF0E0E832D091505040E695001C74
:10144000CAF72BD0FE2F29D0660F771F881FBB1F2E
:10145000261737074807AB07B0E809F0BB0B802D0C
:10146000BF01FF2793585F4F3AF09E3F510578F038
:101470000C94F60A0C94410B5F3FE4F3983ED4F3CE
:10148000869577956795B795F7959F5FC9F7880F0C
:10149000911D9695879597F90895E1E0660F771F5E
:1014A000881FBB1F621773078407BA0720F0621BEF
:1014B000730B840BBA0BEE1F88F7E09508950E941A
:1014C000660A6894B1110C94410B08950E94260B92
:1014D00088F09F5798F0B92F9927B751B0F0E1F0F5
:1014E000660F771F881F991F1AF0BA95C9F714C0A5
:1014F000B13091F00E94400BB1E008950C94400B84
:10150000672F782F8827B85F39F0B93FCCF38695DD
:1015100077956795B395D9F73EF49095809570953A
:1015200061957F4F8F4F9F4F0895E89409C097FBB7
:101530003EF490958095709561957F4F8F4F9F4FAA
:101540009923A9F0F92F96E9BB279395F6958795EE
:1015500077956795B795F111F8CFFAF4BB0F11F4B1
:1015600060FF1BC06F5F7F4F8F4F9F4F16C0882358
:1015700011F096E911C0772321F09EE8872F762F8E
:1015800005C0662371F096E8862F70E060E02AF0CF
:101590009A95660F771F881FDAF7880F96958795BB
:1015A00097F90895990F0008550FAA0BE0E8FEEF90
:1015B00016161706E807F907C0F012161306E40717
:1015C000F50798F0621B730B840B950B39F40A2610
:1015D00061F0232B242B252B21F408950A2609F4EE
:1015E000A140A6958FEF811D811D089597F99F67F2
:1015F00080E870E060E008959FEF80EC089500249B
:101600000A941616170618060906089500240A9467
:1016100012161306140605060895092E0394000CED
:1016200011F4882352F0BB0F40F4BF2B11F460FF7C
:1016300004C06F5F7F4F8F4F9F4F089557FD9058A5
:10164000440F551F59F05F3F71F04795880F97FB86
:10165000991F61F09F3F79F0879508951216130640
:101660001406551FF2CF4695F1DF08C0161617066F
:101670001806991FF1CF86957105610508940895A4
:10168000E894BB2766277727CB0197F908950E9436
:10169000D20A08F48FEF08950E945F0B0C940D0B93
:1016A0000E94FF0A38F00E94060B20F0952311F0EB
:1016B0000C94F60A0C94FC0A11240C94410B0E9421
:1016C0001E0B70F3959FC1F3950F50E0551F629F5D
:1016D000F001729FBB27F00DB11D639FAA27F00D8B
:1016E000B11DAA1F649F6627B00DA11D661F829FB2
:1016F0002227B00DA11D621F739FB00DA11D621F97
:10170000839FA00D611D221F749F3327A00D611DB3
:10171000231F849F600D211D822F762F6A2F112495
:101720009F5750409AF0F1F088234AF0EE0FFF1FC8
:10173000BB1F661F771F881F91505040A9F79E3F1F
:10174000510580F00C94F60A0C94410B5F3FE4F3D2
:10175000983ED4F3869577956795B795F795E79575
:101760009F5FC1F7FE2B880F911D9695879597F97E
:1017700008950E94D20A880B990B089597FB072EB3
:1017800016F4009407D077FD09D00E94F40B07FCF3
:1017900005D03EF4909581959F4F08957095619581
:1017A0007F4F0895A1E21A2EAA1BBB1BFD010DC09D
:1017B000AA1FBB1FEE1FFF1FA217B307E407F50701
:1017C00020F0A21BB30BE40BF50B661F771F881FDD
:1017D000991F1A9469F760957095809590959B0173
:1017E000AC01BD01CF010895AA1BBB1B51E107C08D
:1017F000AA1FBB1FA617B70710F0A61BB70B881FA1
:10180000991F5A95A9F780959095BC01CD0108952F
:10181000EE0FFF1F0590F491E02D099481E090E018
:0A182000F8940C94130CF894FFCF19
:10182A00070604040C1C00000010181F0301000026
:10183A001F1111111111111F03060C1F03161C1E73
:10184A00000000001F04CB01430442045E00BC00F8
:10185A0077016E616E00696E66006F7666004241BE
:10186A0042494E47544F4E004558504552494D45FE
:10187A004E54414C21004D3A00202000423A0000CB
:00000001FF
