:100000000C9472000C949A000C949A000C949A0030
:100010000C949A000C949A000C949A000C949A00F8
:100020000C949A000C949A000C949A000C949A00E8
:100030000C949A000C949A000C949A000C949A00D8
:100040000C94D8060C949A000C949A000C949A0084
:100050000C949A000C949A000C949A000C949A00B8
:100060000C949A000C949A000000000023002600D3
:100070002900005EBCE2613FDD83C29C7E20A3FDBF
:100080001F41009D23BE46DB65F88C11AF32CA5775
:10009000E97400000000240027002A00000000008E
:1000A000250028002B0004040404040404040202B4
:1000B00002020202030303030303010204081020E7
:1000C00040800102040810200102040810200000F2
:1000D0000008000201000003040700000000000007
:1000E00000008E0911241FBECFEFD8E0DEBFCDBFC8
:1000F00011E0A0E0B1E0E0E2F9E102C005900D926C
:10010000A837B107D9F721E0A8E7B1E001C01D92F7
:10011000AA3DB207E1F710E0C2E7D0E004C02197A2
:10012000FE010E94830CC137D107C9F70E94220744
:100130000C948E0C0C94000090E0FC01E253FF4FF5
:100140002491FC01E654FF4F3491FC01EA55FF4F26
:10015000E491EE2309F43CC0222339F1233091F0DD
:1001600038F42130A9F0223001F584B58F7D12C01A
:10017000273091F02830A1F02430B9F4809180002C
:100180008F7D03C0809180008F77809380000DC0A9
:1001900084B58F7784BD09C08091B0008F7703C08C
:1001A0008091B0008F7D8093B000F0E0EE0FFF1FD4
:1001B000E456FF4FA591B4919FB7F894611104C024
:1001C0008C913095382302C0EC913E2B3C939FBF1D
:1001D0000895CF93DF9390E0FC01E654FF4F249104
:1001E000FC01EA55FF4F8491882361F190E0880F6C
:1001F000991FFC01EE56FF4FC591D491FC01E456C6
:10020000FF4FA591B491611109C09FB7F8948881FF
:10021000209582238883EC912E230BC0623061F4F9
:100220009FB7F8948881322F309583238883EC918F
:100230002E2B2C939FBF06C08FB7F894E8812E2BEE
:1002400028838FBFDF91CF910895789484B5826021
:1002500084BD84B5816084BD85B5826085BD85B56A
:10026000816085BDEEE6F0E0808181608083E1E819
:10027000F0E0108280818260808380818160808351
:10028000E0E8F0E0808181608083E1EBF0E0808154
:1002900084608083E0EBF0E0808181608083EAE726
:1002A000F0E08081846080838081826080838081AF
:1002B000816080838081806880831092C10008956E
:1002C0003FB7F8948091AA019091AB01A091AC0145
:1002D000B091AD0126B5A89B05C02F3F19F001963E
:1002E000A11DB11D3FBFBA2FA92F982F8827820FBC
:1002F000911DA11DB11DBC01CD0142E0660F771F0C
:10030000881F991F4A95D1F708958F929F92AF92B7
:10031000BF92CF92DF92EF92FF926B017C010E941D
:1003200060014B015C01C114D104E104F104F1F05E
:100330000E946001DC01CB0188199909AA09BB0957
:10034000883E9340A105B10570F321E0C21AD1089F
:10035000E108F10888EE880E83E0981EA11CB11C0C
:10036000C114D104E104F10419F7DDCFFF90EF903F
:10037000DF90CF90BF90AF909F908F9008952FB750
:10038000F8946091A6017091A7018091A8019091C5
:10039000A9012FBF0895CF92DF92EF92FF920F93A2
:1003A0001F93CF93DF936C017A018B01C0E0D0E003
:1003B000CE15DF0581F0D8016D918D01D601ED914B
:1003C000FC910190F081E02DC6010995892B11F077
:1003D0002196EECF7E01C701DF91CF911F910F9142
:1003E000FF90EF90DF90CF900895DC0180E06150A6
:1003F00098F02D91982F9227E92FEF70F0E0EE58AA
:10040000FF4F249192959F70E92FF0E0EE57FF4F38
:10041000E491822F8E27EBCF0895FC01908101801B
:10042000F281E02DF8948181892B81832281892FAB
:10043000809528232283A7E0B0E01197F1F721816E
:1004400082238183A3E2B0E01197F1F78081789451
:10045000EFECF0E03197F1F7982381E009F480E0C8
:100460000895FC0190810180F281E02D892F809513
:1004700060FF12C0F8942281822382838181892BBC
:100480008183A3E2B0E01197F1F78281982B9283E8
:10049000789487ED90E011C0F894228182238283C2
:1004A0008181892B8183AFEFB0E01197F1F78281D1
:1004B000982B928378948FE090E00197F1F708955C
:1004C000DF92EF92FF920F931F93CF93DF93EC0194
:1004D000D62EE42E08E010E0FF24F39461E08D2D89
:1004E0008F2109F460E0CE010E943102FF0C01501F
:1004F0001109A1F7E11010C0F894E981FA81918106
:100500008881809589238183E981FA81928188811C
:100510008095892382837894DF91CF911F910F91E9
:10052000FF90EF90DF900895DC012C911196ED91F2
:10053000FC911297F8948181922F90958923818361
:1005400078948DE743E050E0815021F1DA01119772
:10055000F1F730813223C1F3F894828189238283B9
:100560008181822B81837894ABE7B7E01197F1F713
:10057000F89481819823918383E191E00197F1F7C9
:100580008081282381E009F080E07894E3E6F6E0BA
:100590003197F1F70895CF93DF93EC0160E08E81FE
:1005A0000E949C0061E08E810E949C0060E08E8130
:1005B0000E949C008BE891E00197F1F7DF91CF91C9
:1005C0000895CF92DF92EF92FF920F931F93CF93F4
:1005D000DF936C017C0187E0E80EF11CC0E0D0E005
:1005E000062F10E0B8010C2E02C0759567950A948D
:1005F000E2F76170F70181917F010E949C002196D2
:10060000C430D10579F7C601DF91CF911F910F91C9
:10061000FF90EF90DF90CF900C94CB02CF92DF92BF
:10062000EF92FF920F931F93CF93DF93EC01F62E7F
:10063000642F8C810E949C008D818F3F19F060E0B7
:100640000E949C008F850F2D10E084FF25C06E0155
:1006500087E0C80ED11CE12CF12CB8010E2C02C091
:10066000759567950A94E2F76170F60181916F01C3
:100670000E949C00FFEFEF1AFF0A88E0E816F104E1
:1006800061F7CE01DF91CF911F910F91FF90EF9015
:10069000DF90CF900C94CB02B80184E075956795FC
:1006A0008A95E1F7CE010E94E1026F2DCE01DF9124
:1006B000CF911F910F91FF90EF90DF90CF900C940E
:1006C000E10240E0682F82EC91E00C940E0381E09F
:1006D0000E9461038BE39FE10197F1F70895CF93A7
:1006E000DF93823028F09091D10198609093D101EE
:1006F0008093D5011092D60180E48093D70180E1E8
:100700008093D80180E58093D90161E08091C60192
:100710000E94E9008091C7018F3F19F061E00E94BB
:10072000E90061E08091C8010E94E900C2ECD1E0DB
:100730009E01225C31408091D10184FD03C084E0A0
:1007400090E002C088E090E02196281739072CF449
:1007500061E08E810E94E900EBCF8BE39DE0019781
:10076000F1F760E08091C6010E949C0060E08091FA
:10077000C8010E949C008091C7018F3F19F060E082
:100780000E949C008091D10184FD20C063E082EC36
:1007900091E00E94E102CBE4D6E4CE010197F1F7AB
:1007A00063E082EC91E00E94E1022197F1F763E0BF
:1007B00082EC91E00E94E10283E592E00197F1F77B
:1007C00062E082EC91E00E94E10215C080620E942A
:1007D00061038BE496E40197F1F78091D101806287
:1007E0000E94610383E592E00197F1F78091D101C6
:1007F00080620E9461038091D10180620E94610346
:1008000084E08093D2018CE00E9461030E94670320
:1008100082E08093D30186E0DF91CF910C94610355
:10082000643008F063E09091D501691710F06FEF24
:10083000690FE62FF0E0EE53FE4F9489890F806830
:100840000C94610341E00E940E0381E090E0089562
:100850000F931F93CF93DF938B01877028E0829FC4
:10086000C001112480640E946103E801085F1F4FEA
:10087000699182EC91E00E942204C017D107C1F770
:10088000DF91CF911F910F910895089580E090E03E
:100890000895009769F0FC0101900020E9F7319775
:1008A000AF01481B590BBC0182EC91E00C94CB01C9
:1008B00080E090E008950C9449048F929F92AF924B
:1008C000BF920F931F93CF93DF93CDB7DEB7A1975E
:1008D0000FB6F894DEBF0FBECDBF19A2423008F4A8
:1008E0004AE08E010F5D1F4F842E912CA12CB12C5C
:1008F000A50194010E944D0CE62FB901CA010150D7
:100900001109EA3014F4E05D01C0E95CD801EC9310
:10091000232B242B252B61F7C8010E944904A196A3
:100920000FB6F894DEBF0FBECDBFDF91CF911F9100
:100930000F91BF90AF909F908F9008958F929F924C
:10094000AF92BF92CF92DF92EF92FF920F931F93DD
:10095000CF93DF936B017C01142F9B01AC010E94AC
:10096000340C882319F082E391E027C04601570137
:10097000E894B7F82FEF3FEF4FE75FE7C501B40109
:100980000E94340C81110DC02FEF3FEF4FE75FE75E
:10099000C501B4010E94630A18161CF486E391E0B5
:1009A0000CC02FEF3FEF4FE75FE4C701B6010E9495
:1009B000C20B181684F48AE391E0DF91CF911F9166
:1009C0000F91FF90EF90DF90CF90BF90AF909F90EE
:1009D0008F900C9449042FEF3FEF4FE75FECC70176
:1009E000B6010E94630A87FDE6CF20E030E0A9014E
:1009F000C701B6010E94630A87FF0DC041E06DE2A6
:100A000082EC91E00E940E03F7FAF094F7F8F0946C
:100A1000C1E0D0E002C0C0E0D0E000E060E070E003
:100A200080E09FE3101741F020E030E040E251E425
:100A30000E94680A0F5FF6CFA70196010E94F7098E
:100A40006B017C010E94E10A4B015C014AE00E94BB
:100A50005D04C80FD91F1123B9F1C501B4010E946B
:100A6000100B9B01AC01C701B6010E94F6096B0196
:100A70007C0141E06EE282EC91E00E940E0321963F
:100A800020E030E040E251E4C701B6010E94C70B0C
:100A90004B015C010E94E10A6B01E12CF12C4AE060
:100AA000C701B6010E945D04C80FD91FC701B60176
:100AB0000E94100B9B01AC01C501B4010E94F60914
:100AC0006B017C011150E1F6CE01DF91CF911F91B6
:100AD0000F91FF90EF90DF90CF90BF90AF909F90DD
:100AE0008F9008956F927F928F929F92AF92BF9254
:100AF000CF92DF92EF92FF920F931F93CF93DF93EA
:100B0000CDB7DEB761970FB6F894DEBF0FBECDBF8D
:100B1000C82EE091B401F091B501138615861486B4
:100B2000DF011B9633961E92AE17BF07E1F7D12C5B
:100B3000992493940091B4011091B501F801858531
:100B400081115EC0C8010E949402882309F458C034
:100B500040E060EFC8010E946002EE24E394A12C03
:100B6000812CFF24F394C8010E940D02B82EC80105
:100B70000E940D02F1E0BF1203C08130C1F437C002
:100B80002A2D30E0B8121DC0F8018385F81630F424
:100B9000E20FF31F83818E2151F402C08F1539F0CB
:100BA000B12CF8E0FF1560F0F801F48609C0F801F7
:100BB000EA0DF11D83818E298383BB24B39409C080
:100BC0008F2CF801E20FF31F93818E2D80958923DE
:100BD00083836B2DC8010E943102F394EE0C19F44B
:100BE000A394EE24E394F7E0FA1508F0BCCF20E4D8
:100BF0002F1530F4F8018386811007C0958605C053
:100C0000F8011386158614861FC0F8018381882396
:100C1000B9F333967E012AE0E20EF11C055F1F4F07
:100C2000D701570181918D93E017F107D9F7CD10C6
:100C300007C067E0C7010E94F5019989891749F04B
:100C4000D394CD1408F076CF60E070E08EEF92EC94
:100C500098C08091B4019091B5010E9494028823BC
:100C600009F48CC00091B4011091B50140E065E534
:100C7000C8010E9460026E01F2E1CF0ED11CF701A3
:100C800061917F0140E0C8010E946002CE14DF0440
:100C9000B1F740E06EEB8091B4019091B5010E94F4
:100CA0006002AE014F5F5F4F7A013A018090B4015C
:100CB0009090B50178E0C72ED12C10E001E0C4017E
:100CC0000E940D028111102B000F51E0C51AD108AE
:100CD000B1F7F70111937F01AE16BF0639F7809186
:100CE000B4019091B5010E949402813009F046C090
:100CF00068E0C3010E94F501998589133FC02A81EC
:100D000030E0C901982F8827990F990F990F6981B1
:100D1000F8E06F9FB00111249C01262B372B8A85A8
:100D20008031C9F4688570E08F81AB01481B51099F
:100D3000CA019695982F8827979587950E94390C18
:100D400060517109207F53E0220F331F5A95E1F75C
:100D5000620F731F01C0B901613854EE75070CF4BE
:100D600073CF072E000C880B990B0E94120B20E00A
:100D700030E040E05CE30E94C70B03C060E874EE23
:100D8000EBCF61960FB6F894DEBF0FBECDBFDF91FB
:100D9000CF911F910F91FF90EF90DF90CF90BF9078
:100DA000AF909F908F907F906F9008950E94890CD4
:100DB0001F920F920FB60F9211242F933F938F9390
:100DC0009F93AF93BF938091A6019091A701A091AB
:100DD000A801B091A9013091A50123E0230F2D377F
:100DE00020F40196A11DB11D05C026E8230F02962F
:100DF000A11DB11D2093A5018093A6019093A70189
:100E0000A093A801B093A9018091AA019091AB0190
:100E1000A091AC01B091AD010196A11DB11D8093CF
:100E2000AA019093AB01A093AC01B093AD01BF9127
:100E3000AF919F918F913F912F910F900FBE0F9087
:100E40001F9018950E94250182E00E946F0368E1BF
:100E500071E080E00E94280460E171E081E00E947E
:100E6000280468E071E082E00E94280460E071E0FC
:100E700083E00E94280460E080E00E9410048EE37A
:100E800091E00E945B0461E080E00E9410048BE42A
:100E900091E00E945B0468E873E180E090E00E94CA
:100EA00085010E94670360E084E00E94100486E5EB
:100EB00091E00E945B0461E082E00E94100480E601
:100EC00091E00E945B0464EF71E080E090E00E949A
:100ED00085010E9467030E942501C0E0D0E090E4F4
:100EE000892E9DE0992E93E0A92EB12C0E94BF017E
:100EF0000091A1011091A2012091A3013091A401C0
:100F0000DC01CB01801B910BA20BB30B813D974001
:100F1000A105B10508F485C00E94BF016093A1013D
:100F20007093A2018093A3019093A4018091B401D6
:100F30009091B5010E94940240E06CEC8091B40164
:100F40009091B5010E9460024091AE0164E48091ED
:100F5000B4019091B5010E9460028091B001882394
:100F6000D9F1E091AF01E950E33040F4F0E0EE0F49
:100F7000FF1FE45DFE4F0081118102C00EEE12E002
:100F80008091B101882311F18091AE0181111EC0C1
:100F90000E94BF012B013C016801110FEE08FF0800
:100FA0008091B4019091B5010E940D028130A1F0B1
:100FB0000E94BF01DC01CB018C199D09AE09BF095C
:100FC00084159505A605B70558F306C0B801110F9D
:100FD000880B990B0E94850180E00E9472056B01CD
:100FE0007C0181E00E9472056093990170939A01DF
:100FF00080939B0190939C0160919801062E000CB8
:10100000770B880B990B0E94120BA70196010E9487
:10101000F70960939D0170939E0180939F019093C7
:10102000A0010E94BF0100919401109195012091AF
:10103000960130919701DC01CB01801B910BA20B33
:10104000B30B893C9105A105B10508F477C00E9456
:10105000BF016093940170939501809396019093E2
:10106000970160E080E00E9410048FE691E00E940A
:101070005B0460919D0170919E0180919F01909110
:10108000A00142E00E949E0482E791E00E945B047E
:1010900060918C0170918D0180918E0190918F01F2
:1010A0000E94E10A70E080E090E04AE00E945D0466
:1010B0008DE691E00E945B0461E080E00E941004F4
:1010C00085E791E00E945B046091990170919A011B
:1010D00080919B0190919C0142E00E949E048DE6CC
:1010E00091E00E945B0480918701882341F062E0D7
:1010F00082EC91E00E9422041092870108C063E014
:1011000082EC91E00E94220481E0809387018DE6C9
:1011100091E00E945B0480918601882341F060E0A9
:1011200082EC91E00E9422041092860107C08DE6B5
:1011300091E00E945B0481E0809386010E94BF01E0
:1011400000919001109191012091920130919301B1
:10115000DC01CB01801B910BA20BB30B853F9140AF
:10116000A105B10508F4D4C00E94BF0160939001AD
:1011700070939101809392019093930140909D010F
:1011800050909E0160909F017090A001A301920178
:1011900060E070E082E892E40E94F6096B017C0155
:1011A00020E030E048EC52E460918C0170918D01B8
:1011B00080918E0190918F010E94630A87FF1AC06F
:1011C000C701B6010E94DA0A0091880110918901D5
:1011D00020918A0130918B01DC01CB01800F911F9E
:1011E000A21FB31F8093880190938901A0938A0165
:1011F000B0938B018091880190918901A0918A011F
:10120000B0918B0181349D40A340B10544F08092A0
:10121000880190928901A0928A01B0928B018091FD
:10122000880190918901A0918A01B0918B01883148
:101230009C4FAF4FBF4F64F488E19CEFAFEFBFEF1F
:101240008093880190938901A0938A01B0938B01C8
:10125000609188017091890180918A0190918B0140
:101260000E94120B2AE037ED43EA5BE30E94C70BB2
:10127000A70196010E94F7096B017C0120E030E094
:10128000A9010E94630A87FF09C010928C01109285
:101290008D0110928E0110928F011FC020E030E06E
:1012A00048EC52E4C701B6010E94C20B18164CF07C
:1012B000C0928C01D0928D01E0928E01F0928F014C
:1012C0000CC080E090E0A8ECB2E480938C01909395
:1012D0008D01A0938E01B0938F0120E030E048E7AC
:1012E00052E4C301B2010E94C20B87FD02C0409AC2
:1012F00001C040981C9905C0809198018F5F809330
:1013000098011D9905C080919801815080939801A2
:10131000209709F4EBCD0E940000E8CD60E088E062
:101320000E94E900E2ECF0E0E491E0937801EEEA5B
:10133000F0E0E491F0E0EE0FFF1FE859FF4F8591D8
:10134000949190937A018093790110928301109285
:10135000850110928401E3E8F1E0129281E0EB371D
:10136000F807D9F788E791E09093B5018093B4012D
:101370001092B2011092B3011092AE0189E08093F5
:10138000AF0181E08093B0018093B1011092C1015F
:101390001092C0011092C5011092C40184E291E044
:1013A0009093C3018093C20182E08093C6018FEFC6
:1013B0008093C70183E08093C80184E08093C901D2
:1013C00085E08093CA0186E08093CB0187E080931B
:1013D000CC011092CD011092CE011092CF0110924B
:1013E000D0011092D10181E00C946F035058BB27BB
:1013F000AA270E940E0A0C94880B0E947A0B38F0E0
:101400000E94810B20F039F49F3F19F426F40C94CC
:10141000770B0EF4E095E7FB0C94710BE92F0E941B
:10142000990B58F3BA17620773078407950720F0E2
:1014300079F4A6F50C94BB0B0EF4E0950B2EBA2FA5
:10144000A02D0B01B90190010C01CA01A0011124CA
:10145000FF27591B99F0593F50F4503E68F11A1676
:10146000F040A22F232F342F4427585FF3CF469507
:1014700037952795A795F0405395C9F77EF41F1629
:10148000BA0B620B730B840BBAF09150A1F0FF0FF3
:10149000BB1F661F771F881FC2F70EC0BA0F621FDF
:1014A000731F841F48F4879577956795B795F795CF
:1014B0009E3F08F0B0CF9395880F08F09927EE0F64
:1014C0009795879508950E944D0B08F481E0089543
:1014D0000E947C0A0C94880B0E94810B58F00E9499
:1014E0007A0B40F029F45F3F29F00C94710B5111F5
:1014F0000C94BC0B0C94770B0E94990B68F3992306
:10150000B1F3552391F3951B550BBB27AA276217FF
:101510007307840738F09F5F5F4F220F331F441F0C
:10152000AA1FA9F335D00E2E3AF0E0E832D0915040
:101530005040E695001CCAF72BD0FE2F29D0660F2D
:10154000771F881FBB1F261737074807AB07B0E870
:1015500009F0BB0B802DBF01FF2793585F4F3AF076
:101560009E3F510578F00C94710B0C94BC0B5F3FBF
:10157000E4F3983ED4F3869577956795B795F795FC
:101580009F5FC9F7880F911D9695879597F90895E4
:10159000E1E0660F771F881FBB1F62177307840780
:1015A000BA0720F0621B730B840BBA0BEE1F88F78F
:1015B000E09508950E94E10A6894B1110C94BC0B67
:1015C00008950E94A10B88F09F5798F0B92F992792
:1015D000B751B0F0E1F0660F771F881F991F1AF01E
:1015E000BA95C9F714C0B13091F00E94BB0BB1E0BD
:1015F00008950C94BB0B672F782F8827B85F39F0BC
:10160000B93FCCF3869577956795B395D9F73EF4B6
:1016100090958095709561957F4F8F4F9F4F08955E
:10162000E89409C097FB3EF490958095709561957C
:101630007F4F8F4F9F4F9923A9F0F92F96E9BB2732
:101640009395F695879577956795B795F111F8CFAE
:10165000FAF4BB0F11F460FF1BC06F5F7F4F8F4F19
:101660009F4F16C0882311F096E911C0772321F00F
:101670009EE8872F762F05C0662371F096E8862FA7
:1016800070E060E02AF09A95660F771F881FDAF7FE
:10169000880F9695879597F90895990F0008550F2B
:1016A000AA0BE0E8FEEF16161706E807F907C0F0E8
:1016B00012161306E407F50798F0621B730B840BF0
:1016C000950B39F40A2661F0232B242B252B21F4CA
:1016D00008950A2609F4A140A6958FEF811D811D6A
:1016E000089597F99F6780E870E060E008959FEFA4
:1016F00080EC089500240A941616170618060906A9
:10170000089500240A941216130614060506089577
:10171000092E0394000C11F4882352F0BB0F40F4FF
:10172000BF2B11F460FF04C06F5F7F4F8F4F9F4F3F
:10173000089557FD9058440F551F59F05F3F71F0C1
:101740004795880F97FB991F61F09F3F79F0879528
:101750000895121613061406551FF2CF4695F1DFB1
:1017600008C0161617061806991FF1CF8695710541
:10177000610508940895E894BB2766277727CB0175
:1017800097F908950E944D0B08F48FEF08950E9479
:10179000DA0B0C94880B0E947A0B38F00E94810BB4
:1017A00020F0952311F00C94710B0C94770B1124FD
:1017B0000C94BC0B0E94990B70F3959FC1F3950F8D
:1017C00050E0551F629FF001729FBB27F00DB11DC5
:1017D000639FAA27F00DB11DAA1F649F6627B00D55
:1017E000A11D661F829F2227B00DA11D621F739F3E
:1017F000B00DA11D621F839FA00D611D221F749F4C
:101800003327A00D611D231F849F600D211D822F92
:10181000762F6A2F11249F5750409AF0F1F08823B9
:101820004AF0EE0FFF1FBB1F661F771F881F9150E6
:101830005040A9F79E3F510580F00C94710B0C9419
:10184000BC0B5F3FE4F3983ED4F38695779567959C
:10185000B795F795E7959F5FC1F7FE2B880F911D10
:101860009695879597F908950E944D0B880B990BD3
:10187000089597FB072E16F4009407D077FD09D042
:101880000E946F0C07FC05D03EF4909581959F4F08
:101890000895709561957F4F0895A1E21A2EAA1BB5
:1018A000BB1BFD010DC0AA1FBB1FEE1FFF1FA21710
:1018B000B307E407F50720F0A21BB30BE40BF50B0D
:1018C000661F771F881F991F1A9469F76095709596
:1018D000809590959B01AC01BD01CF010895AA1B95
:1018E000BB1B51E107C0AA1FBB1FA617B70710F00B
:1018F000A61BB70B881F991F5A95A9F7809590953D
:10190000BC01CD010895EE0FFF1F0590F491E02D6D
:10191000099481E090E0F8940C948E0CF894FFCF39
:10192000070604040C1C00000010181F030100002F
:101930001F1111111111111F03060C1F03161C1E7C
:10194000000000002204CB01460445045E00BC00F8
:1019500077016E616E00696E66006F7666002F2FEC
:101960006769746875622E636F6D002F6164634EE2
:101970006F6973652F00424142494E47544F4E00F4
:101980004558504552494D454E54414C2120004D3B
:081990003A00202500423A0054
:00000001FF
