:100000000C9472000C949A000C949A000C949A0030
:100010000C949A000C949A000C949A000C949A00F8
:100020000C949A000C949A000C949A000C949A00E8
:100030000C949A000C949A000C949A000C949A00D8
:100040000C94E8060C949A000C949A000C949A0074
:100050000C949A000C949A000C949A000C949A00B8
:100060000C949A000C949A000000000023002600D3
:100070002900005EBCE2613FDD83C29C7E20A3FDBF
:100080001F41009D23BE46DB65F88C11AF32CA5775
:10009000E97400000000240027002A00000000008E
:1000A000250028002B0004040404040404040202B4
:1000B00002020202030303030303010204081020E7
:1000C00040800102040810200102040810200000F2
:1000D0000008000201000003040700000000000007
:1000E0000000BA0811241FBECFEFD8E0DEBFCDBF9D
:1000F00011E0A0E0B1E0EAE6F7E102C005900D9260
:10010000A036B107D9F721E0A0E6B1E001C01D9209
:10011000A53BB207E1F710E0C2E7D0E004C02197A9
:10012000FE010E94A80BC137D107C9F70E94320710
:100130000C94B30B0C94000090E0FC01E253FF4FD1
:100140002491FC01E654FF4F3491FC01EA55FF4F26
:10015000E491EE2309F43CC0222339F1233091F0DD
:1001600038F42130A9F0223001F584B58F7D12C01A
:10017000273091F02830A1F02430B9F4809180002C
:100180008F7D03C0809180008F77809380000DC0A9
:1001900084B58F7784BD09C08091B0008F7703C08C
:1001A0008091B0008F7D8093B000F0E0EE0FFF1FD4
:1001B000E456FF4FA591B4919FB7F894611104C024
:1001C0008C913095382302C0EC913E2B3C939FBF1D
:1001D0000895CF93DF9390E0FC01E654FF4F249104
:1001E000FC01EA55FF4F8491882361F190E0880F6C
:1001F000991FFC01EE56FF4FC591D491FC01E456C6
:10020000FF4FA591B491611109C09FB7F8948881FF
:10021000209582238883EC912E230BC0623061F4F9
:100220009FB7F8948881322F309583238883EC918F
:100230002E2B2C939FBF06C08FB7F894E8812E2BEE
:1002400028838FBFDF91CF910895789484B5826021
:1002500084BD84B5816084BD85B5826085BD85B56A
:10026000816085BDEEE6F0E0808181608083E1E819
:10027000F0E0108280818260808380818160808351
:10028000E0E8F0E0808181608083E1EBF0E0808154
:1002900084608083E0EBF0E0808181608083EAE726
:1002A000F0E08081846080838081826080838081AF
:1002B000816080838081806880831092C10008956E
:1002C0003FB7F8948091850190918601A0918701B4
:1002D000B091880126B5A89B05C02F3F19F0019663
:1002E000A11DB11D3FBFBA2FA92F982F8827820FBC
:1002F000911DA11DB11DBC01CD0142E0660F771F0C
:10030000881F991F4A95D1F708958F929F92AF92B7
:10031000BF92CF92DF92EF92FF926B017C010E941D
:1003200060014B015C01C114D104E104F104F1F05E
:100330000E946001DC01CB0188199909AA09BB0957
:10034000883E9340A105B10570F321E0C21AD1089F
:10035000E108F10888EE880E83E0981EA11CB11C0C
:10036000C114D104E104F10419F7DDCFFF90EF903F
:10037000DF90CF90BF90AF909F908F9008952FB750
:10038000F894609181017091820180918301909134
:1003900084012FBF0895CF92DF92EF92FF920F93C7
:1003A0001F93CF93DF936C017A018B01C0E0D0E003
:1003B000CE15DF0581F0D8016D918D01D601ED914B
:1003C000FC910190F081E02DC6010995892B11F077
:1003D0002196EECF7E01C701DF91CF911F910F9142
:1003E000FF90EF90DF90CF900895DC0180E06150A6
:1003F00098F02D91982F9227E92FEF70F0E0EE58AA
:10040000FF4F249192959F70E92FF0E0EE57FF4F38
:10041000E491822F8E27EBCF0895FC01908101801B
:10042000F281E02DF8948181892B81832281892FAB
:10043000809528232283A7E0B0E01197F1F721816E
:1004400082238183A3E2B0E01197F1F78081789451
:10045000EFECF0E03197F1F7982381E009F480E0C8
:100460000895FC0190810180F281E02D892F809513
:1004700060FF12C0F8942281822382838181892BBC
:100480008183A3E2B0E01197F1F78281982B9283E8
:10049000789487ED90E011C0F894228182238283C2
:1004A0008181892B8183AFEFB0E01197F1F78281D1
:1004B000982B928378948FE090E00197F1F708955C
:1004C000DF92EF92FF920F931F93CF93DF93EC0194
:1004D000D62EE42E08E010E0FF24F39461E08D2D89
:1004E0008F2109F460E0CE010E943102FF0C01501F
:1004F0001109A1F7E11010C0F894E981FA81918106
:100500008881809589238183E981FA81928188811C
:100510008095892382837894DF91CF911F910F91E9
:10052000FF90EF90DF900895DC012C911196ED91F2
:10053000FC911297F8948181922F90958923818361
:1005400078948DE743E050E0815021F1DA01119772
:10055000F1F730813223C1F3F894828189238283B9
:100560008181822B81837894ABE7B7E01197F1F713
:10057000F89481819823918383E191E00197F1F7C9
:100580008081282381E009F080E07894E3E6F6E0BA
:100590003197F1F708954F925F926F927F928F9209
:1005A0009F92AF92BF92CF92DF92EF92FF920F9302
:1005B0001F93CF93DF93CDB7DEB729970FB6F8948B
:1005C000DEBF0FBECDBF8C0180918F019091900155
:1005D0000E949402882309F481C0C0908F01D090BA
:1005E000900140E065E5C6010E9460027801580173
:1005F00028E0A20EB11CF70161917F0140E0C60125
:100600000E946002AE14BF04B1F740E06EEB80912F
:100610008F01909190010E946002AE014F5F5F4F89
:100620007A015E015AE0A50EB11C270180908F016E
:100630009090900178E0672E712CD12CCC24C3943B
:10064000C4010E940D028111DC28CC0C81E0681AE3
:100650007108B1F7F701D1927F01AE16BF0631F7ED
:1006600080918F01909190010E9494028130B1F5A8
:1006700068E0C2010E94F501998589132FC02A8183
:1006800030E0A901542F4427550F550F550F89818C
:10069000F8E08F9FC00111249A01282B392BF80113
:1006A00080818031C9F4688570E08F81AB01481B7F
:1006B0005109CA019695982F8827979587950E948A
:1006C0005E0BCB014097207F53E0220F331F5A95DA
:1006D000E1F7820F931F04C0C90102C080E894EEC5
:1006E00029960FB6F894DEBF0FBECDBFDF91CF9134
:1006F0001F910F91FF90EF90DF90CF90BF90AF9040
:100700009F908F907F906F905F904F900895CF93C0
:10071000DF93EC0160E08E810E949C0061E08E819D
:100720000E949C0060E08E810E949C008BE891E01A
:100730000197F1F7DF91CF910895CF92DF92EF9279
:10074000FF920F931F93CF93DF936C017C0187E09F
:10075000E80EF11CC0E0D0E0062F10E0B8010C2E2E
:1007600002C0759567950A94E2F76170F70181916F
:100770007F010E949C002196C430D10579F7C60103
:10078000DF91CF911F910F91FF90EF90DF90CF906D
:100790000C948703CF92DF92EF92FF920F931F93F7
:1007A000CF93DF93EC01F62E642F8C810E949C0086
:1007B0008D818F3F19F060E00E949C008F850F2D86
:1007C00010E084FF25C06E0187E0C80ED11CE12C2B
:1007D000F12CB8010E2C02C0759567950A94E2F7CA
:1007E0006170F60181916F010E949C00FFEFEF1A8A
:1007F000FF0A88E0E816F10461F7CE01DF91CF919E
:100800001F910F91FF90EF90DF90CF900C94870392
:10081000B80184E0759567958A95E1F7CE010E944D
:100820009D036F2DCE01DF91CF911F910F91FF900E
:10083000EF90DF90CF900C949D0340E0682F8DE9FE
:1008400091E00C94CA03CF93DF93823028F090910B
:10085000AC0198609093AC018093B0011092B1010B
:1008600080E48093B20180E18093B30180E58093BE
:10087000B40161E08091A1010E94E9008091A20190
:100880008F3F19F061E00E94E90061E08091A301CF
:100890000E94E900CDE9D1E09E012D5931408091BF
:1008A000AC0184FD03C084E090E002C088E090E0E9
:1008B0002196281739072CF461E08E810E94E90007
:1008C000EBCF8BE39DE00197F1F760E08091A10110
:1008D0000E949C0060E08091A3010E949C00809196
:1008E000A2018F3F19F060E00E949C008091AC0152
:1008F00084FD20C063E08DE991E00E949D03CBE47C
:10090000D6E4CE010197F1F763E08DE991E00E9412
:100910009D032197F1F763E08DE991E00E949D032B
:1009200083E592E00197F1F762E08DE991E00E94A2
:100930009D0315C080620E941D048BE496E401971C
:10094000F1F78091AC0180620E941D0483E592E082
:100950000197F1F78091AC0180620E941D048091A3
:10096000AC0180620E941D0484E08093AD018CE0A4
:100970000E941D0481E00E941D048BE39FE101970A
:10098000F1F782E08093AE0186E0DF91CF910C9485
:100990001D04643008F063E09091B001691710F015
:1009A0006FEF690FE62FF0E0E356FE4F9489890F51
:1009B00080680C941D0441E00E94CA0381E090E02D
:1009C00008950F931F93CF93DF938B01877028E0D7
:1009D000829FC001112480640E941D04E801085F09
:1009E0001F4F69918DE991E00E94DB04C017D10788
:1009F000C1F7DF91CF911F910F910895089580E085
:100A000090E00895009769F0FC0101900020E9F75B
:100A10003197AF01481B590BBC018DE991E00C9453
:100A2000CB0180E090E008952F923F924F925F9229
:100A30006F927F928F929F92AF92BF92CF92DF92EE
:100A4000EF92FF920F931F93CF93DF93CDB7DEB753
:100A5000A5970FB6F894DEBF0FBECDBF4B015C016A
:100A6000F42E9B01AC010E94590B882319F082E3FC
:100A700091E027C024013501E89477F82FEF3FEF8C
:100A80004FE75FE7C301B2010E94590B81110DC00E
:100A90002FEF3FEF4FE75FE7C301B2010E948F09DD
:100AA00018161CF486E391E00CC02FEF3FEF4FE7E0
:100AB0005FE4C501B4010E94E70A18162CF48AE32A
:100AC00091E00E940205BEC02FEF3FEF4FE75FECC1
:100AD000C501B4010E948F0987FDF1CF20E030E00D
:100AE000A901C501B4010E948F0987FF0FC041E031
:100AF0006DE28DE991E00E94CA03B7FAB094B7F8AD
:100B0000B09481E090E09BA38AA302C01BA21AA22A
:100B100010E060E070E080E09FE3F11641F020E03B
:100B200030E040E251E40E9494091F5FF6CFA50136
:100B300094010E9423094B015C010E94060A762E53
:100B4000C72ED82EE92E19A2262F372F482F592F1E
:100B50008E010F5D1F4F0CA3612E9AE0292E312CC0
:100B6000412C512CCA01B901A20191010E94720BC2
:100B7000605DF80162938F01211531054105510532
:100B800089F7CF010E9402050AA11BA1080F191FB6
:100B9000FF2009F456C0672D7C2D8D2D9E2D0E94BF
:100BA000350A9B01AC01C501B4010E9422094B0129
:100BB0005C0141E06EE28DE991E00E94CA030F5FA3
:100BC0001F4F8AE0282E312C412C512C20E030E0A0
:100BD00040E251E4C501B4010E94EC0A4B015C0102
:100BE0000E94060A9B0140E050E019A2CCA0D62C3E
:100BF000762E3AA34DA3E52ECA01B901A2019101B7
:100C00000E94720B605DF60162936F012115310540
:100C10004105510589F7CF010E940205080F191FF0
:100C2000672D7AA18DA19E2D0E94350A9B01AC01F2
:100C3000C501B4010E9422094B015C01FA94F11034
:100C4000C5CFC801A5960FB6F894DEBF0FBECDBFC5
:100C5000DF91CF911F910F91FF90EF90DF90CF9098
:100C6000BF90AF909F908F907F906F905F904F90CC
:100C70003F902F9008958F929F92AF92BF92CF9204
:100C8000DF92EF92FF920F931F93CF93DF937C013C
:100C9000A62EE0918F01F09190011386158614869F
:100CA000DF011B9633961E92AE17BF07E1F7B12CFA
:100CB00088248394C0918F01D09190018D858111FA
:100CC00063C0CE010E949402882309F45DC040E015
:100CD00060EFCE010E94600201E0C12C912C11E076
:100CE000CE010E940D02D82ECE010E940D0291E08D
:100CF000D91203C08130B1F434C02C2D30E0D812A9
:100D00001BC08B85181738F4FE01E20FF31F838197
:100D1000802341F402C0811729F0D12C193058F4F6
:100D20001C8709C0FE01EC0DF11D8381802B83839C
:100D3000DD24D39409C0912EFE01E20FF31F9381AD
:100D4000802F8095892383836D2DCE010E943102EF
:100D50001F5F000F11F4C39401E0E7E0EC1508F009
:100D6000BFCF113488F09B86911001C08D868B8196
:100D7000882351F0FE013396D7012B9681918D93F4
:100D8000EC17FD07D9F705C01B861D861C8680E081
:100D900010C0AB100AC067E0C7010E94F501F7015F
:100DA0009781891302C081E004C0B394AB1478F337
:100DB00081CFDF91CF911F910F91FF90EF90DF9046
:100DC000CF90BF90AF909F908F9008950E94AE0BF0
:100DD0001F920F920FB60F9211242F933F938F9370
:100DE0009F93AF93BF938091810190918201A091D5
:100DF0008301B09184013091800123E0230F2D37CE
:100E000020F40196A11DB11D05C026E8230F02960E
:100E1000A11DB11D209380018093810190938201D7
:100E2000A0938301B0938401809185019091860104
:100E3000A0918701B09188010196A11DB11D8093F9
:100E4000850190938601A0938701B0938801BF919B
:100E5000AF919F918F913F912F910F900FBE0F9067
:100E60001F901895CF93DF93CDB7DEB728970FB6B5
:100E7000F894DEBF0FBECDBF0E94250182E00E9424
:100E8000230468E171E080E00E94E10460E171E028
:100E900081E00E94E10468E071E082E00E94E104E8
:100EA00060E071E083E00E94E10460E084E00E9481
:100EB000C9048EE391E00E94020561E082E00E9495
:100EC000C90488E491E00E94020568EE73E080E0C6
:100ED00090E00E9485010E94250181E00E941D048E
:100EE0008BE39FE10197F1F700E010E00E94BF0162
:100EF000C0907C01D0907D01E0907E01F0907F0158
:100F0000DC01CB018C199D09AE09BF09813D9740D9
:100F1000A105B10508F4B2C00E94BF0160937C0135
:100F200070937D0180937E0190937F0180918F016A
:100F3000909190010E94940240E06CEC80918F01AE
:100F4000909190010E9460024091890164E4809137
:100F50008F01909190010E94600280918B01882303
:100F6000E9F1E0918A01E950E33040F4F0E0EE0F5E
:100F7000FF1FE45DFE4FC080D18004C08EEEC82EFE
:100F800082E0D82E80918C01882311F18091890113
:100F900081111EC00E94BF014B015C010D2C000C91
:100FA000EE08FF0880918F01909190010E940D0240
:100FB0008130A1F00E94BF01DC01CB018C199D0999
:100FC000AE09BF0988159905AA05BB0558F306C0E7
:100FD000B601DD0C880B990B0E94850160E0CE0103
:100FE00001960E943B06811105C060E070E08EEF23
:100FF00092EC14C0CE0101960E94CB02813824EEFF
:1010000092079CF3BC01990F880B990B0E94370A39
:1010100020E030E040E05CE30E94EC0A609378015D
:101020007093790180937A0190937B0161E0CE0106
:1010300001960E943B06811105C060E070E08EEFD2
:1010400092EC14C0CE0101960E94CB02813824EEAE
:1010500092079CF3BC01990F880B990B0E94370AE9
:1010600020E030E040E05CE30E94EC0A6093740111
:101070007093750180937601909377010E94BF0170
:10108000C0907001D0907101E0907201F0907301F6
:10109000DC01CB018C199D09AE09BF09893C910582
:1010A000A105B10508F45FC00E94BF016093700103
:1010B00070937101809372019093730160E080E0FE
:1010C0000E94C90486E591E00E94020560917801C2
:1010D0007091790180917A0190917B0142E00E94A8
:1010E000140589E591E00E94020580916F01882333
:1010F00041F060E08DE991E00E94DB0410926F0105
:1011000007C08AE591E00E94020581E080936F01AB
:1011100061E080E00E94C9048CE591E00E94020534
:1011200060917401709175018091760190917701C1
:1011300042E00E94140589E591E00E940205809139
:101140006E01882341F062E08DE991E00E94DB04AA
:1011500010926E0108C063E08DE991E00E94DB040B
:1011600081E080936E010115110509F4BFCE0E9444
:101170000000BCCE60E088E00E94E900E2ECF0E014
:10118000E491E0936001EEEAF0E0E491F0E0EE0F2C
:10119000FF1FE859FF4F85919491909362018093CE
:1011A000610110926B0110926D0110926C01EBE6DF
:1011B000F1E0129281E0E336F807D9F780E691E09A
:1011C0009093900180938F0110928D0110928E0167
:1011D0001092890189E080938A0181E080938B01DC
:1011E00080938C0110929C0110929B011092A0019F
:1011F00010929F0184E291E090939E0180939D0163
:1012000082E08093A1018FEF8093A20183E080931D
:10121000A30184E08093A40185E08093A50186E08A
:101220008093A60187E08093A7011092A8011092F5
:10123000A9011092AA011092AB011092AC0181E0B9
:101240000C9423045058BB27AA270E943A090C94F7
:10125000AD0A0E949F0A38F00E94A60A20F039F4D5
:101260009F3F19F426F40C949C0A0EF4E095E7FBDA
:101270000C94960AE92F0E94BE0A58F3BA17620727
:1012800073078407950720F079F4A6F50C94E00A1B
:101290000EF4E0950B2EBA2FA02D0B01B901900191
:1012A0000C01CA01A0011124FF27591B99F0593FD5
:1012B00050F4503E68F11A16F040A22F232F342F1D
:1012C0004427585FF3CF469537952795A795F0406B
:1012D0005395C9F77EF41F16BA0B620B730B840B80
:1012E000BAF09150A1F0FF0FBB1F661F771F881F38
:1012F000C2F70EC0BA0F621F731F841F48F4879590
:1013000077956795B795F7959E3F08F0B0CF939581
:10131000880F08F09927EE0F9795879508950E94FA
:10132000720A08F481E008950E94A8090C94AD0A9D
:101330000E94A60A58F00E949F0A40F029F45F3FDD
:1013400029F00C94960A51110C94E10A0C949C0A11
:101350000E94BE0A68F39923B1F3552391F3951BBC
:10136000550BBB27AA2762177307840738F09F5FC6
:101370005F4F220F331F441FAA1FA9F335D00E2E33
:101380003AF0E0E832D091505040E695001CCAF7A0
:101390002BD0FE2F29D0660F771F881FBB1F261763
:1013A00037074807AB07B0E809F0BB0B802DBF013A
:1013B000FF2793585F4F3AF09E3F510578F00C9409
:1013C000960A0C94E10A5F3FE4F3983ED4F38695C5
:1013D00077956795B795F7959F5FC9F7880F911D2A
:1013E0009695879597F90895E1E0660F771F881F16
:1013F000BB1F621773078407BA0720F0621B730BC9
:10140000840BBA0BEE1F88F7E09508950E94C60A78
:1014100088F09F5798F0B92F9927B751B0F0E1F0B5
:10142000660F771F881F991F1AF0BA95C9F714C065
:10143000B13091F00E94E00AB1E008950C94E00A06
:10144000672F782F8827B85F39F0B93FCCF386959E
:1014500077956795B395D9F73EF4909580957095FB
:1014600061957F4F8F4F9F4F0895E89409C097FB78
:101470003EF490958095709561957F4F8F4F9F4F6B
:101480009923A9F0F92F96E9BB279395F6958795AF
:1014900077956795B795F111F8CFFAF4BB0F11F472
:1014A00060FF1BC06F5F7F4F8F4F9F4F16C0882319
:1014B00011F096E911C0772321F09EE8872F762F4F
:1014C00005C0662371F096E8862F70E060E02AF090
:1014D0009A95660F771F881FDAF7880F969587957C
:1014E00097F90895990F0008550FAA0BE0E8FEEF51
:1014F00016161706E807F907C0F012161306E407D8
:10150000F50798F0621B730B840B950B39F40A26D0
:1015100061F0232B242B252B21F408950A2609F4AE
:10152000A140A6958FEF811D811D089597F99F67B2
:1015300080E870E060E008959FEF80EC089500245B
:101540000A941616170618060906089500240A9428
:1015500012161306140605060895092E0394000CAE
:1015600011F4882352F0BB0F40F4BF2B11F460FF3D
:1015700004C06F5F7F4F8F4F9F4F089557FD905866
:10158000440F551F59F05F3F71F04795880F97FB47
:10159000991F61F09F3F79F0879508951216130601
:1015A0001406551FF2CF4695F1DF08C01616170630
:1015B0001806991FF1CF8695710561050894089565
:1015C000E894BB2766277727CB0197F908950E94F7
:1015D000720A08F48FEF08950E94FF0A0C94AD0A76
:1015E0000E949F0A38F00E94A60A20F0952311F06D
:1015F0000C94960A0C949C0A11240C94E10A0E9403
:10160000BE0A70F3959FC1F3950F50E0551F629F7E
:10161000F001729FBB27F00DB11D639FAA27F00D4B
:10162000B11DAA1F649F6627B00DA11D661F829F72
:101630002227B00DA11D621F739FB00DA11D621F57
:10164000839FA00D611D221F749F3327A00D611D74
:10165000231F849F600D211D822F762F6A2F112456
:101660009F5750409AF0F1F088234AF0EE0FFF1F89
:10167000BB1F661F771F881F91505040A9F79E3FE0
:10168000510580F00C94960A0C94E10A5F3FE4F354
:10169000983ED4F3869577956795B795F795E79536
:1016A0009F5FC1F7FE2B880F911D9695879597F93F
:1016B00008950E94720A880B990B089597FB072ED4
:1016C00016F4009407D077FD09D00E94940B07FC14
:1016D00005D03EF4909581959F4F08957095619542
:1016E0007F4F0895A1E21A2EAA1BBB1BFD010DC05E
:1016F000AA1FBB1FEE1FFF1FA217B307E407F507C2
:1017000020F0A21BB30BE40BF50B661F771F881F9D
:10171000991F1A9469F760957095809590959B0133
:10172000AC01BD01CF010895AA1BBB1B51E107C04D
:10173000AA1FBB1FA617B70710F0A61BB70B881F61
:10174000991F5A95A9F780959095BC01CD010895F0
:10175000EE0FFF1F0590F491E02D099481E090E0D9
:0A176000F8940C94B30BF894FFCF3B
:10176A00070604040C1C00000010181F03010000E7
:10177A001F1111111111111F03060C1F03161C1E34
:10178A0000000000DB04CB01FF04FE045E00BC0085
:10179A0077016E616E00696E66006F76660042417F
:1017AA0042494E47544F4E004558504552494D45BF
:1017BA004E54414C21004D3A00202000423A00008C
:00000001FF
