:100000000C947D000C94A5000C94A5000C94A50004
:100010000C94A5000C94A5000C94A5000C94A500CC
:100020000C94A5000C94A5000C94A5000C94A500BC
:100030000C94A5000C94A5000C94A5000C94A500AC
:100040000C94E3060C94A5000C94A5000C94A50058
:100050000C94A5000C94A5000C94A5000C94A5008C
:100060000C94A5000C94A5001D081F082108240865
:1000700028082C083008340838083B083E080000DF
:100080000000230026002900005EBCE2613FDD8302
:10009000C29C7E20A3FD1F41009D23BE46DB65F868
:1000A0008C11AF32CA57E974000000002400270009
:1000B0002A0000000000250028002B00040404048E
:1000C0000404040402020202020203030303030302
:1000D00001020408102040800102040810200102DF
:1000E00004081020000000080002010000030407BB
:1000F0000000000000000000D40911241FBECFEF53
:10010000D8E0DEBFCDBF11E0A0E0B1E0ECEAF9E15C
:1001100002C005900D92A837B107D9F721E0A8E7F2
:10012000B1E001C01D92A93DB207E1F710E0CDE7B3
:10013000D0E004C02197FE010E94B50CCC37D10756
:10014000C9F70E942D070C94D40C0C94000090E089
:10015000FC01EC51FF4F2491FC01E053FF4F34911F
:10016000FC01E454FF4FE491EE2309F43CC0222348
:1001700039F1233091F038F42130A9F0223001F523
:1001800084B58F7D12C0273091F02830A1F0243043
:10019000B9F4809180008F7D03C0809180008F77BB
:1001A000809380000DC084B58F7784BD09C0809195
:1001B000B0008F7703C08091B0008F7D8093B00036
:1001C000F0E0EE0FFF1FEE54FF4FA591B4919FB7E3
:1001D000F894611104C08C913095382302C0EC91E1
:1001E0003E2B3C939FBF0895CF93DF9390E0FC019B
:1001F000E053FF4F2491FC01E454FF4F8491882386
:1002000061F190E0880F991FFC01E855FF4FC591FF
:10021000D491FC01EE54FF4FA591B491611109C036
:100220009FB7F8948881209582238883EC912E23B0
:100230000BC0623061F49FB7F8948881322F3095FB
:1002400083238883EC912E2B2C939FBF06C08FB7FE
:10025000F894E8812E2B28838FBFDF91CF910895EA
:10026000789484B5826084BD84B5816084BD85B591
:10027000826085BD85B5816085BDEEE6F0E0808158
:1002800081608083E1E8F0E0108280818260808379
:10029000808181608083E0E8F0E0808181608083FC
:1002A000E1EBF0E0808184608083E0EBF0E080812E
:1002B00081608083EAE7F0E08081846080838081D0
:1002C0008260808380818160808380818068808378
:1002D0001092C10008953FB7F8948091A9019091C0
:1002E000AA01A091AB01B091AC0126B5A89B05C0B5
:1002F0002F3F19F00196A11DB11D3FBFBA2FA92FA5
:10030000982F8827820F911DA11DB11DBC01CD0121
:1003100042E0660F771F881F991F4A95D1F708950D
:100320008F929F92AF92BF92CF92DF92EF92FF9205
:100330006B017C010E946B014B015C01C114D10473
:10034000E104F104F1F00E946B01DC01CB0188199A
:100350009909AA09BB09883E9340A105B10570F32C
:1003600021E0C21AD108E108F10888EE880E83E086
:10037000981EA11CB11CC114D104E104F10419F7A9
:10038000DDCFFF90EF90DF90CF90BF90AF909F9028
:100390008F9008952FB7F8946091A5017091A601F0
:1003A0008091A7019091A8012FBF0895CF92DF926D
:1003B000EF92FF920F931F93CF93DF936C017A011B
:1003C0008B01C0E0D0E0CE15DF0581F0D8016D9142
:1003D0008D01D601ED91FC910190F081E02DC601D7
:1003E0000995892B11F02196EECF7E01C701DF918F
:1003F000CF911F910F91FF90EF90DF90CF900895D4
:10040000DC0180E0615098F02D91982F9227E92F20
:10041000EF70F0E0E857FF4F249192959F70E92F1D
:10042000F0E0E856FF4FE491822F8E27EBCF08953E
:10043000FC0190810180F281E02DF8948181892B6B
:1004400081832281892F809528232283A7E0B0E031
:100450001197F1F7218182238183A3E2B0E0119704
:10046000F1F780817894EFECF0E03197F1F7982381
:1004700081E009F480E00895FC0190810180F2811F
:10048000E02D892F809560FF12C0F894228182238D
:1004900082838181892B8183A3E2B0E01197F1F7F8
:1004A0008281982B9283789487ED90E011C0F89424
:1004B0002281822382838181892B8183AFEFB0E007
:1004C0001197F1F78281982B928378948FE090E0D6
:1004D0000197F1F70895DF92EF92FF920F931F9328
:1004E000CF93DF93EC01D62EE42E08E010E0FF243A
:1004F000F39461E08D2D8F2109F460E0CE010E941C
:100500003C02FF0C01501109A1F7E11010C0F89452
:10051000E981FA8191818881809589238183E981AC
:10052000FA81928188818095892382837894DF91F2
:10053000CF911F910F91FF90EF90DF900895DC0114
:100540002C911196ED91FC911297F8948181922F44
:1005500090958923818378948DE743E050E0815022
:1005600021F1DA011197F1F730813223C1F3F894C8
:100570008281892382838181822B81837894ABE776
:10058000B7E01197F1F7F89481819823918383E183
:1005900091E00197F1F78081282381E009F080E064
:1005A0007894E3E6F6E03197F1F70895CF93DF937F
:1005B000EC0160E08E810E94A70061E08E810E94C4
:1005C000A70060E08E810E94A7008BE891E0019770
:1005D000F1F7DF91CF910895CF92DF92EF92FF92E2
:1005E0000F931F93CF93DF936C017C0187E0E80E9C
:1005F000F11CC0E0D0E0062F10E0B8010C2E02C0C4
:10060000759567950A94E2F76170F70181917F0112
:100610000E94A7002196C430D10579F7C601DF9169
:10062000CF911F910F91FF90EF90DF90CF900C949E
:10063000D602CF92DF92EF92FF920F931F93CF9348
:10064000DF93EC01F62E642F8C810E94A7008D8130
:100650008F3F19F060E00E94A7008F850F2D10E0FA
:1006600084FF25C06E0187E0C80ED11CE12CF12C5F
:10067000B8010E2C02C0759567950A94E2F7617077
:10068000F60181916F010E94A700FFEFEF1AFF0AA8
:1006900088E0E816F10461F7CE01DF91CF911F9158
:1006A0000F91FF90EF90DF90CF900C94D602B8019D
:1006B00084E0759567958A95E1F7CE010E94EC027A
:1006C0006F2DCE01DF91CF911F910F91FF90EF9091
:1006D000DF90CF900C94EC0240E0682F81EC91E029
:1006E0000C94190381E00E946C038BE39FE1019756
:1006F000F1F70895CF93DF93823028F09091D001E5
:1007000098609093D0018093D4011092D50180E439
:100710008093D60180E18093D70180E58093D80152
:1007200061E08091C5010E94F4008091C6018F3F75
:1007300019F061E00E94F40061E08091C7010E941D
:10074000F400C1ECD1E09E01215C31408091D001E8
:1007500084FD03C084E090E002C088E090E0219630
:10076000281739072CF461E08E810E94F400EBCF4A
:100770008BE39DE00197F1F760E08091C5010E9455
:10078000A70060E08091C7010E94A7008091C60188
:100790008F3F19F060E00E94A7008091D00184FD96
:1007A00020C063E081EC91E00E94EC02CBE4D6E44F
:1007B000CE010197F1F763E081EC91E00E94EC0239
:1007C0002197F1F763E081EC91E00E94EC0283E570
:1007D00092E00197F1F762E081EC91E00E94EC0277
:1007E00015C080620E946C038BE496E40197F1F7D8
:1007F0008091D00180620E946C0383E592E00197B2
:10080000F1F78091D00180620E946C038091D00149
:1008100080620E946C0384E08093D1018CE00E948E
:100820006C030E94720382E08093D20186E0DF9124
:10083000CF910C946C03643008F063E09091D40184
:10084000691710F06FEF690FE62FF0E0EF53FE4FDE
:100850009489890F80680C946C0341E00E9419030D
:1008600081E090E008950F931F93CF93DF938B0166
:10087000877028E0829FC001112480640E946C036D
:10088000E801085F1F4F699181EC91E00E942D04FF
:10089000C017D107C1F7DF91CF911F910F91089534
:1008A000089580E090E00895009769F0FC010190C0
:1008B0000020E9F73197AF01481B590BBC0181ECCF
:1008C00091E00C94D60180E090E008950C945404DB
:1008D0008F929F92AF92BF920F931F93CF93DF930C
:1008E000CDB7DEB7A1970FB6F894DEBF0FBECDBF70
:1008F00019A2423008F44AE08E010F5D1F4F842E8A
:10090000912CA12CB12CA50194010E94930CE62FEF
:10091000B901CA0101501109EA3014F4E05D01C0C7
:10092000E95CD801EC93232B242B252B61F7C8011C
:100930000E945404A1960FB6F894DEBF0FBECDBF3F
:10094000DF91CF911F910F91BF90AF909F908F90AB
:1009500008958F929F92AF92BF92CF92DF92EF92C3
:10096000FF920F931F93CF93DF936B017C01142FA2
:100970009B01AC010E947A0C882319F082E391E07C
:1009800027C046015701E894B7F82FEF3FEF4FE734
:100990005FE7C501B4010E947A0C81110DC02FEFF1
:1009A0003FEF4FE75FE7C501B4010E94A90A18169F
:1009B0001CF486E391E00CC02FEF3FEF4FE75FE4BC
:1009C000C701B6010E94080C181684F48AE391E06E
:1009D000DF91CF911F910F91FF90EF90DF90CF901B
:1009E000BF90AF909F908F900C9454042FEF3FEFE7
:1009F0004FE75FECC701B6010E94A90A87FDE6CF69
:100A000020E030E0A901C701B6010E94A90A87FFD2
:100A10000DC041E06DE281EC91E00E941903F7FA0C
:100A2000F094F7F8F094C1E0D0E002C0C0E0D0E06C
:100A300000E060E070E080E09FE3101741F020E00C
:100A400030E040E251E40E94AE0A0F5FF6CFA7010A
:100A500096010E943D0A6B017C010E94270B4B010D
:100A60005C014AE00E946804C80FD91F1123B9F144
:100A7000C501B4010E94560B9B01AC01C701B60130
:100A80000E943C0A6B017C0141E06EE281EC91E046
:100A90000E941903219620E030E040E251E4C701B2
:100AA000B6010E940D0C4B015C010E94270B6B01EB
:100AB000E12CF12C4AE0C701B6010E946804C80F7E
:100AC000D91FC701B6010E94560B9B01AC01C5019D
:100AD000B4010E943C0A6B017C011150E1F6CE0189
:100AE000DF91CF911F910F91FF90EF90DF90CF900A
:100AF000BF90AF909F908F9008956F927F928F924A
:100B00009F92AF92BF92CF92DF92EF92FF920F939C
:100B10001F93CF93DF93CDB7DEB761970FB6F894ED
:100B2000DEBF0FBECDBFC82EE091B301F091B4017E
:100B3000138615861486DF011B9633961E92AE1718
:100B4000BF07E1F7D12C992493940091B301109140
:100B5000B401F801858581115EC0C8010E949F0221
:100B6000882309F458C040E060EFC8010E946B027E
:100B7000EE24E394A12C812CFF24F394C8010E945D
:100B80001802B82EC8010E941802F1E0BF1203C07B
:100B90008130C1F437C02A2D30E0B8121DC0F801F1
:100BA0008385F81630F4E20FF31F83818E2151F410
:100BB00002C08F1539F0B12CF8E0FF1560F0F80194
:100BC000F48609C0F801EA0DF11D83818E29838323
:100BD000BB24B39409C08F2CF801E20FF31F93815B
:100BE0008E2D8095892383836B2DC8010E943C0242
:100BF000F394EE0C19F4A394EE24E394F7E0FA15C1
:100C000008F0BCCF20E42F1530F4F8018386811062
:100C100007C0958605C0F8011386158614861FC087
:100C2000F80183818823B9F333967E012AE0E20E2E
:100C3000F11C055F1F4FD701570181918D93E0177C
:100C4000F107D9F7CD1007C067E0C7010E94000285
:100C50009989891749F0D394CD1408F076CF60E0D4
:100C600070E08EEF92EC98C08091B3019091B40146
:100C70000E949F02882309F48CC00091B301109157
:100C8000B40140E065E5C8010E946B026E01F2E12B
:100C9000CF0ED11CF70161917F0140E0C8010E9495
:100CA0006B02CE14DF04B1F740E06EEB8091B3012C
:100CB0009091B4010E946B02AE014F5F5F4F7A01C9
:100CC0003A018090B3019090B40178E0C72ED12C06
:100CD00010E001E0C4010E9418028111102B000FE6
:100CE00051E0C51AD108B1F7F70111937F01AE1693
:100CF000BF0639F78091B3019091B4010E949F0221
:100D0000813009F046C068E0C3010E940002998565
:100D100089133FC02A8130E0C901982F8827990F95
:100D2000990F990F6981F8E06F9FB00111249C0120
:100D3000262B372B8A858031C9F4688570E08F8136
:100D4000AB01481B5109CA019695982F88279795A2
:100D500087950E947F0C60517109207F53E0220F1C
:100D6000331F5A95E1F7620F731F01C0B901613853
:100D700054EE75070CF473CF072E000C880B990BFB
:100D80000E94580B20E030E040E05CE30E940D0C34
:100D900003C060E874EEEBCF61960FB6F894DEBF47
:100DA0000FBECDBFDF91CF911F910F91FF90EF90BC
:100DB000DF90CF90BF90AF909F908F907F906F907B
:100DC00008950E94CF0C1F920F920FB60F9211241C
:100DD0002F933F938F939F93AF93BF938091A501E0
:100DE0009091A601A091A701B091A8013091A40112
:100DF00023E0230F2D3720F40196A11DB11D05C05E
:100E000026E8230F0296A11DB11D2093A401809313
:100E1000A5019093A601A093A701B093A80180918A
:100E2000A9019091AA01A091AB01B091AC010196EA
:100E3000A11DB11D8093A9019093AA01A093AB01BC
:100E4000B093AC01BF91AF919F918F913F912F9142
:100E50000F900FBE0F901F9018950E94300182E0F6
:100E60000E947A0368E171E080E00E94330460E14F
:100E700071E081E00E94330468E071E082E00E944A
:100E8000330460E071E083E00E94330460E080E0BE
:100E90000E941B048EE391E00E94660461E080E002
:100EA0000E941B048BE491E00E94660460ED77E0F1
:100EB00080E090E00E9490010E94720360E084E074
:100EC0000E941B0486E591E00E94660461E082E0D6
:100ED0000E941B0480E691E00E94660464EF71E0CA
:100EE00080E090E00E9490010E9472030E94300115
:100EF00020E0222E20E0322E1CE0DBE0CAE004E0FD
:100F00000E94CA01C090A001D090A101E090A2016E
:100F1000F090A301DC01CB018C199D09AE09BF093A
:100F2000813D9740A105B10508F4BFC00E94CA01E8
:100F30006093A0017093A1018093A2019093A301FB
:100F40008091B3019091B4010E949F0240E06CEC4B
:100F50008091B3019091B4010E946B024091AD0168
:100F600064E48091B3019091B4010E946B0280917E
:100F7000AF018823E9F1E091AE01E950E33040F49C
:100F8000F0E0EE0FFF1FE45DFE4FC080D18004C093
:100F90008EEEC82E82E0D82E8091B001882311F108
:100FA0008091AD0181111EC00E94CA014B015C01FC
:100FB0000D2C000CEE08FF088091B3019091B40154
:100FC0000E9418028130A1F00E94CA01DC01CB010D
:100FD0008C199D09AE09BF0988159905AA05BB059D
:100FE00058F306C0B601DD0C880B990B0E949001E6
:100FF00080E00E947D056B017C0160939C017093F1
:101000009D0180939E0190939F0181E00E947D0548
:10101000609398017093990180939A0190939B013A
:10102000E0918E018E2F90E0FC013197EB30F105BD
:1010300038F5EC5CFF4F0C94B50C82E006C083E001
:1010400004C000938E011CC085E080938E0118C0FF
:1010500096E090938E0114C0A7E0A0938E0110C07B
:10106000B8E0B0938E010CC029E020938E0108C037
:10107000C0938E0105C0D0938E0102C010938E01E3
:1010800060919701062E000C770B880B990B0E943C
:10109000580BA70196010E943D0A60939C01709332
:1010A0009D0180939E0190939F010E94CA01C09070
:1010B0009301D0909401E0909501F0909601DC01AD
:1010C000CB018C199D09AE09BF09893C9105A10589
:1010D000B10508F463C00E94CA0160939301709344
:1010E0009401809395019093960160E080E00E94C6
:1010F0001B048FE691E00E94660460919C01709150
:101100009D0180919E0190919F0142E00E94A9045F
:1011100082E791E00E94660460918A0170918B01E0
:1011200080918C0190918D010E94270B70E080E0EE
:1011300090E04AE00E9468048DE691E00E94660417
:1011400061E080E00E941B0485E791E00E94660454
:10115000609198017091990180919A0190919B0101
:1011600042E00E94A9048DE691E00E9466048DE6AB
:1011700091E00E94660480918E01982F9D7F897F67
:10118000813011F0993031F460E081EC91E00E94FF
:101190002D0404C08DE691E00E9466040E94CA01FD
:1011A000C0908F01D0909001E0909101F090920159
:1011B000DC01CB018C199D09AE09BF09853F914027
:1011C000A105B10508F4E6C00E94CA0160938F0131
:1011D00070939001809391019093920180909C0173
:1011E00090909D01A0909E01B0909F01A501940157
:1011F00060E070E082E892E40E943C0A6B017C01AE
:1012000020E030E048EC52E460918A0170918B015B
:1012100080918C0190918D010E94A90A87FF1AC0CC
:10122000C701B6010E94200B4090860150908701B3
:101230006090880170908901DC01CB01840D951DBF
:10124000A61DB71D8093860190938701A093880106
:10125000B09389018091860190918701A0918801C6
:10126000B091890181349D40A340B10564F080E4D0
:101270009DE0A3E0B0E08093860190938701A09366
:101280008801B09389018091860190918701A09196
:101290008801B091890188319C4FAF4FBF4F64F4F2
:1012A00088E19CEFAFEFBFEF8093860190938701B9
:1012B000A0938801B09389016091860170918701A4
:1012C00080918801909189010E94580B2AE037EDA6
:1012D00043E25CE30E940D0C2B013C01A701960147
:1012E000C701B6010E943D0A9B01AC01C301B201D6
:1012F0000E943D0A6B017C0120E030E0A9010E94C0
:10130000A90A87FF09C010928A0110928B011092DE
:101310008C0110928D011FC020E030E048EC52E4B7
:10132000C701B6010E94080C18164CF0C0928A0141
:10133000D0928B01E0928C01F0928D010CC080E084
:1013400090E0A8ECB2E480938A0190938B01A09383
:101350008C01B0938D0120E030E048E752E4C501F4
:10136000B4010E94080C87FD1CC080918E01811180
:1013700003C081E080938E011C9905C08091970184
:101380008F5F809397011D9905C0809197018150CF
:10139000809397012114310409F4B2CD0E9400001A
:1013A000AECD10928E01E8CF60E088E00E94F4009C
:1013B000E8EDF0E0E491E0937801E4ECF0E0E49112
:1013C000F0E0EE0FFF1FE258FF4F8591949190934C
:1013D0007A01809379011092830110928501109215
:1013E0008401E3E8F1E0129281E0EB37F807D9F7E6
:1013F00088E791E09093B4018093B3011092B1011A
:101400001092B2011092AD0189E08093AE0181E0AB
:101410008093AF018093B0011092C0011092BF0180
:101420001092C4011092C30184E291E09093C20132
:101430008093C10182E08093C5018FEF8093C60144
:1014400083E08093C70184E08093C80185E08093A6
:10145000C90186E08093CA0187E08093CB01109296
:10146000CC011092CD011092CE011092CF011092BA
:10147000D00181E00C947A035058BB27AA270E9420
:10148000540A0C94CE0B0E94C00B38F00E94C70B7C
:1014900020F039F49F3F19F426F40C94BD0B0EF4A0
:1014A000E095E7FB0C94B70BE92F0E94DF0B58F394
:1014B000BA17620773078407950720F079F4A6F539
:1014C0000C94010C0EF4E0950B2EBA2FA02D0B01FD
:1014D000B90190010C01CA01A0011124FF27591B79
:1014E00099F0593F50F4503E68F11A16F040A22F7F
:1014F000232F342F4427585FF3CF469537952795F0
:10150000A795F0405395C9F77EF41F16BA0B620BEE
:10151000730B840BBAF09150A1F0FF0FBB1F661F35
:10152000771F881FC2F70EC0BA0F621F731F841F78
:1015300048F4879577956795B795F7959E3F08F09E
:10154000B0CF9395880F08F09927EE0F9795879560
:1015500008950E94930B08F481E008950E94C20A46
:101560000C94CE0B0E94C70B58F00E94C00B40F0A9
:1015700029F45F3F29F00C94B70B51110C94020C25
:101580000C94BD0B0E94DF0B68F39923B1F3552334
:1015900091F3951B550BBB27AA2762177307840786
:1015A00038F09F5F5F4F220F331F441FAA1FA9F31C
:1015B00035D00E2E3AF0E0E832D091505040E6950A
:1015C000001CCAF72BD0FE2F29D0660F771F881F6B
:1015D000BB1F261737074807AB07B0E809F0BB0B5E
:1015E000802DBF01FF2793585F4F3AF09E3F510572
:1015F00078F00C94B70B0C94020C5F3FE4F3983E28
:10160000D4F3869577956795B795F7959F5FC9F75A
:10161000880F911D9695879597F90895E1E0660FDB
:10162000771F881FBB1F621773078407BA0720F054
:10163000621B730B840BBA0BEE1F88F7E0950895BD
:101640000E94270B6894B1110C94020C08950E941B
:10165000E70B88F09F5798F0B92F9927B751B0F052
:10166000E1F0660F771F881F991F1AF0BA95C9F726
:1016700014C0B13091F00E94010CB1E008950C94B7
:10168000010C672F782F8827B85F39F0B93FCCF36A
:10169000869577956795B395D9F73EF490958095A3
:1016A000709561957F4F8F4F9F4F0895E89409C0C3
:1016B00097FB3EF490958095709561957F4F8F4F85
:1016C0009F4F9923A9F0F92F96E9BB279395F6959B
:1016D000879577956795B795F111F8CFFAF4BB0F19
:1016E00011F460FF1BC06F5F7F4F8F4F9F4F16C07D
:1016F000882311F096E911C0772321F09EE8872F07
:10170000762F05C0662371F096E8862F70E060E0C2
:101710002AF09A95660F771F881FDAF7880F96953B
:10172000879597F90895990F0008550FAA0BE0E8DF
:10173000FEEF16161706E807F907C0F01216130693
:10174000E407F50798F0621B730B840B950B39F4D3
:101750000A2661F0232B242B252B21F408950A2639
:1017600009F4A140A6958FEF811D811D089597F979
:101770009F6780E870E060E008959FEF80EC089537
:1017800000240A9416161706180609060895002460
:101790000A9412161306140605060895092E0394DA
:1017A000000C11F4882352F0BB0F40F4BF2B11F44E
:1017B00060FF04C06F5F7F4F8F4F9F4F089557FDAD
:1017C0009058440F551F59F05F3F71F04795880FAF
:1017D00097FB991F61F09F3F79F087950895121646
:1017E00013061406551FF2CF4695F1DF08C01616F2
:1017F00017061806991FF1CF8695710561050894A3
:101800000895E894BB2766277727CB0197F90895B9
:101810000E94930B08F48FEF08950E94200C0C9403
:10182000CE0B0E94C00B38F00E94C70B20F095230E
:1018300011F00C94B70B0C94BD0B11240C94020CFA
:101840000E94DF0B70F3959FC1F3950F50E0551F79
:10185000629FF001729FBB27F00DB11D639FAA2705
:10186000F00DB11DAA1F649F6627B00DA11D661F54
:10187000829F2227B00DA11D621F739FB00DA11D75
:10188000621F839FA00D611D221F749F3327A00D2F
:10189000611D231F849F600D211D822F762F6A2FCB
:1018A00011249F5750409AF0F1F088234AF0EE0F30
:1018B000FF1FBB1F661F771F881F91505040A9F75D
:1018C0009E3F510580F00C94B70B0C94020C5F3FC7
:1018D000E4F3983ED4F3869577956795B795F79599
:1018E000E7959F5FC1F7FE2B880F911D9695879511
:1018F00097F908950E94930B880B990B089597FB15
:10190000072E16F4009407D077FD09D00E94BB0C77
:1019100007FC05D03EF4909581959F4F08957095F2
:1019200061957F4F0895A1E21A2EAA1BBB1BFD01F2
:101930000DC0AA1FBB1FEE1FFF1FA217B307E407AE
:10194000F50720F0A21BB30BE40BF50B661F771F06
:10195000881F991F1A9469F76095709580959095E6
:101960009B01AC01BD01CF010895EE0FFF1F059053
:10197000F491E02D0994AA1BBB1B51E107C0AA1FDB
:10198000BB1FA617B70710F0A61BB70B881F991F20
:101990005A95A9F780959095BC01CD01089581E0F5
:0C19A00090E0F8940C94D40CF894FFCF65
:1019AC00070604040C1C00000010181F03010000A3
:1019BC001F1111111111111F03060C1F03161C1EF0
:1019CC00000000002D04D601510450045E00BC0040
:1019DC0077016E616E00696E66006F7666002F2F60
:1019EC006769746875622E636F6D002F6164634E56
:1019FC006F6973652F00424142494E47544F4E0068
:101A0C004558504552494D454E54414C2120004DAE
:081A1C003A00202500423A00C7
:107800000C94343C0C94513C0C94513C0C94513CE1
:107810000C94513C0C94513C0C94513C0C94513CB4
:107820000C94513C0C94513C0C94513C0C94513CA4
:107830000C94513C0C94513C0C94513C0C94513C94
:107840000C94513C0C94513C0C94513C0C94513C84
:107850000C94513C0C94513C0C94513C0C94513C74
:107860000C94513C0C94513C11241FBECFEFD8E036
:10787000DEBFCDBF11E0A0E0B1E0ECE9FFE702C060
:1078800005900D92A230B107D9F712E0A2E0B1E065
:1078900001C01D92AD30B107E1F70E942D3D0C945F
:1078A000CC3F0C94003C982F959595959595959582
:1078B000905D8F708A307CF0282F295A8091C0000B
:1078C00085FFFCCF9093C6008091C00085FFFCCF60
:1078D0002093C6000895282F205DF0CF982F809127
:1078E000C00085FFFCCF9093C6000895EF92FF92F1
:1078F0000F931F93EE24FF2487018091C00087FD22
:1079000017C00894E11CF11C011D111D81E4E8164B
:1079100082E4F8068FE0080780E0180770F3E09132
:107920000401F091050109958091C00087FFE9CF1E
:107930008091C6001F910F91FF90EF9008950E94D3
:10794000763C982F8091C00085FFFCCF9093C600B5
:1079500091362CF490330CF09053892F089597555D
:10796000892F08951F930E949F3C182F0E949F3CCF
:107970001295107F810F1F9108951F93182F882350
:1079800021F00E94763C1150E1F71F9108951F935A
:10799000182F0E94763C803249F0809103018F5F5E
:1079A000809303018530C1F01F9108958091C0003C
:1079B00085FFFCCF84E18093C6008091C00085FFE5
:1079C000FCCF1093C6008091C00085FFFCCF80E102
:1079D0008093C6001F910895E0910401F091050184
:1079E00009951F9108950E94763C803241F0809164
:1079F00003018F5F80930301853081F008958091AA
:107A0000C00085FFFCCF84E18093C6008091C00058
:107A100085FFFCCF80E18093C6000895E0910401CA
:107A2000F09105010995089540E951E08823A1F0FE
:107A30002D9A28EE33E0FA013197F1F721503040CA
:107A4000D1F72D9828EE33E0FA013197F1F7215064
:107A50003040D1F7815061F708953F924F925F9285
:107A60006F927F928F929F92AF92BF92CF92DF924E
:107A7000EF92FF920F931F93CF93DF93000080E16B
:107A80008093C4001092C50088E18093C10086E015
:107A90008093C2005098589A259A81E00E94143D24
:107AA00024E1F22E9EE1E92E85E9D82E0FE0C02ECA
:107AB00010E1B12EAA24A394B1E49B2EA6E58A2E50
:107AC000F2E57F2EE0E26E2E79E4572E63E5462E36
:107AD00050E5352E0E94763C8033B1F18133B9F107
:107AE000803409F46FC0813409F476C0823409F41B
:107AF00085C0853409F488C0803531F1823521F1A3
:107B0000813511F1853509F485C0863509F48DC0BC
:107B1000843609F496C0843709F403C1853709F423
:107B200072C1863709F466C0809103018F5F80932C
:107B30000301853079F6E0910401F0910501099582
:107B40000E94763C803351F60E94F33CC3CF0E94E2
:107B5000763C803249F78091C00085FFFCCFF092DF
:107B6000C6008091C00085FFFCCF9092C600809136
:107B7000C00085FFFCCF8092C6008091C00085FFC9
:107B8000FCCF7092C6008091C00085FFFCCF609250
:107B9000C6008091C00085FFFCCF5092C600809146
:107BA000C00085FFFCCF4092C6008091C00085FFD9
:107BB000FCCF3092C6008091C00085FFFCCFB09210
:107BC000C60088CF0E94763C863808F4BDCF0E945C
:107BD000763C0E94F33C7ECF0E94763C803809F4CC
:107BE0009CC0813809F40BC1823809F43CC1883942
:107BF00009F48FC080E00E94C73C6CCF84E10E94F2
:107C0000BD3C0E94F33C66CF85E00E94BD3C0E94D3
:107C1000F33C60CF0E94763C809306010E94763C44
:107C2000809307010E94F33C55CF0E94763C80333D
:107C300009F41DC183E00E94BD3C80E00E94C73C66
:107C400049CF0E94763C809309020E94763C809343
:107C5000080280910C028E7F80930C020E94763C79
:107C6000853409F415C18091080290910902892B8D
:107C700089F000E010E00E94763CF801E85FFE4FDA
:107C800080830F5F1F4F80910802909109020817AF
:107C9000190788F30E94763C803209F045CF809125
:107CA0000C0280FF01C16091060170910701660F0F
:107CB000771F7093070160930601A0910802B091AD
:107CC00009021097C9F0E8E0F1E09B01AD014E0F09
:107CD0005F1FF999FECF32BD21BD819180BDFA9A17
:107CE000F99A2F5F3F4FE417F50799F76A0F7B1F4B
:107CF00070930701609306018091C00085FFFCCF5F
:107D0000F092C6008091C00085FFFCCFB092C60003
:107D1000E1CE83E00E94C73CDDCE82E00E94C73CFA
:107D2000D9CE0E94763C809309020E94763C8093D3
:107D300008028091060190910701880F991F909386
:107D40000701809306010E94763C853409F4A6C0A1
:107D500080910C028E7F80930C020E94763C8032D0
:107D600009F0B8CE8091C00085FFFCCFF092C6002C
:107D7000609108027091090261157105B9F140E046
:107D800050E080910C02A82FA170B82FB27011C0E2
:107D9000BB2309F45CC0E0910601F0910701319624
:107DA000F0930701E09306014F5F5F4F46175707B7
:107DB000E8F4AA2369F3F999FECF209106013091E6
:107DC000070132BD21BDF89A90B58091C00085FFB2
:107DD000FCCF9093C6002F5F3F4F30930701209355
:107DE00006014F5F5F4F4617570718F38091C00099
:107DF00085FDE5CE8091C00085FFF8CFE0CE81E023
:107E00000E94C73C67CE0E94763C803209F08CCE3F
:107E10008091C00085FFFCCFF092C6008091C00029
:107E200085FFFCCFE092C6008091C00085FFFCCFAB
:107E3000D092C6008091C00085FFFCCFC092C600E2
:107E40008091C00085FFFCCFB092C60043CEE09188
:107E50000601F091070194918091C00085FFFCCF4D
:107E60009093C6009CCF80E10E94C73C33CE0E9415
:107E7000763C0E94763C182F0E94763C112309F430
:107E800083C0113009F484C08FE00E94C73C22CE29
:107E900080910C02816080930C02E5CE80910C02EF
:107EA000816080930C0259CF809107018823880F4D
:107EB000880B8A2180930B02809106019091070123
:107EC000880F991F90930701809306018091080203
:107ED00080FF09C080910802909109020196909359
:107EE000090280930802F894F999FECF1127E091D6
:107EF0000601F0910701C8E0D1E08091080290915D
:107F00000902103091F40091570001700130D9F34B
:107F100003E000935700E89500915700017001308D
:107F2000D9F301E100935700E89509901990009169
:107F3000570001700130D9F301E000935700E89534
:107F40001395103498F011270091570001700130FB
:107F5000D9F305E000935700E895009157000170B0
:107F60000130D9F301E100935700E895329602976A
:107F700009F0C7CF103011F00296E5CF112480919F
:107F8000C00085FFB9CEBCCE8EE10E94C73CA2CD19
:0C7F900085E90E94C73C9ECDF894FFCF0D
:027F9C00800063
:040000030000780081
:00000001FF
