:100000000C9472000C949A000C949A000C949A0030
:100010000C949A000C949A000C949A000C949A00F8
:100020000C949A000C949A000C949A000C949A00E8
:100030000C949A000C949A000C949A000C949A00D8
:100040000C94D8060C949A000C949A000C949A0084
:100050000C949A000C949A000C949A000C949A00B8
:100060000C949A000C949A000000000023002600D3
:100070002900005EBCE2613FDD83C29C7E20A3FDBF
:100080001F41009D23BE46DB65F88C11AF32CA5775
:10009000E97400000000240027002A00000000008E
:1000A000250028002B0004040404040404040202B4
:1000B00002020202030303030303010204081020E7
:1000C00040800102040810200102040810200000F2
:1000D0000008000201000003040700000000000007
:1000E0000000680911241FBECFEFD8E0DEBFCDBFEE
:1000F00011E0A0E0B1E0E4EDF8E102C005900D925E
:10010000A236B107D9F721E0A2E6B1E001C01D9205
:10011000A33CB207E1F710E0C2E7D0E004C02197AA
:10012000FE010E945D0CC137D107C9F70E9422076A
:100130000C94680C0C94000090E0FC01E253FF4F1B
:100140002491FC01E654FF4F3491FC01EA55FF4F26
:10015000E491EE2309F43CC0222339F1233091F0DD
:1001600038F42130A9F0223001F584B58F7D12C01A
:10017000273091F02830A1F02430B9F4809180002C
:100180008F7D03C0809180008F77809380000DC0A9
:1001900084B58F7784BD09C08091B0008F7703C08C
:1001A0008091B0008F7D8093B000F0E0EE0FFF1FD4
:1001B000E456FF4FA591B4919FB7F894611104C024
:1001C0008C913095382302C0EC913E2B3C939FBF1D
:1001D0000895CF93DF9390E0FC01E654FF4F249104
:1001E000FC01EA55FF4F8491882361F190E0880F6C
:1001F000991FFC01EE56FF4FC591D491FC01E456C6
:10020000FF4FA591B491611109C09FB7F8948881FF
:10021000209582238883EC912E230BC0623061F4F9
:100220009FB7F8948881322F309583238883EC918F
:100230002E2B2C939FBF06C08FB7F894E8812E2BEE
:1002400028838FBFDF91CF910895789484B5826021
:1002500084BD84B5816084BD85B5826085BD85B56A
:10026000816085BDEEE6F0E0808181608083E1E819
:10027000F0E0108280818260808380818160808351
:10028000E0E8F0E0808181608083E1EBF0E0808154
:1002900084608083E0EBF0E0808181608083EAE726
:1002A000F0E08081846080838081826080838081AF
:1002B000816080838081806880831092C10008956E
:1002C0003FB7F8948091930190919401A09195018A
:1002D000B091960126B5A89B05C02F3F19F0019655
:1002E000A11DB11D3FBFBA2FA92F982F8827820FBC
:1002F000911DA11DB11DBC01CD0142E0660F771F0C
:10030000881F991F4A95D1F708958F929F92AF92B7
:10031000BF92CF92DF92EF92FF926B017C010E941D
:1003200060014B015C01C114D104E104F104F1F05E
:100330000E946001DC01CB0188199909AA09BB0957
:10034000883E9340A105B10570F321E0C21AD1089F
:10035000E108F10888EE880E83E0981EA11CB11C0C
:10036000C114D104E104F10419F7DDCFFF90EF903F
:10037000DF90CF90BF90AF909F908F9008952FB750
:10038000F89460918F01709190018091910190910A
:1003900092012FBF0895CF92DF92EF92FF920F93B9
:1003A0001F93CF93DF936C017A018B01C0E0D0E003
:1003B000CE15DF0581F0D8016D918D01D601ED914B
:1003C000FC910190F081E02DC6010995892B11F077
:1003D0002196EECF7E01C701DF91CF911F910F9142
:1003E000FF90EF90DF90CF900895DC0180E06150A6
:1003F00098F02D91982F9227E92FEF70F0E0EE58AA
:10040000FF4F249192959F70E92FF0E0EE57FF4F38
:10041000E491822F8E27EBCF0895FC01908101801B
:10042000F281E02DF8948181892B81832281892FAB
:10043000809528232283A7E0B0E01197F1F721816E
:1004400082238183A3E2B0E01197F1F78081789451
:10045000EFECF0E03197F1F7982381E009F480E0C8
:100460000895FC0190810180F281E02D892F809513
:1004700060FF12C0F8942281822382838181892BBC
:100480008183A3E2B0E01197F1F78281982B9283E8
:10049000789487ED90E011C0F894228182238283C2
:1004A0008181892B8183AFEFB0E01197F1F78281D1
:1004B000982B928378948FE090E00197F1F708955C
:1004C000DF92EF92FF920F931F93CF93DF93EC0194
:1004D000D62EE42E08E010E0FF24F39461E08D2D89
:1004E0008F2109F460E0CE010E943102FF0C01501F
:1004F0001109A1F7E11010C0F894E981FA81918106
:100500008881809589238183E981FA81928188811C
:100510008095892382837894DF91CF911F910F91E9
:10052000FF90EF90DF900895DC012C911196ED91F2
:10053000FC911297F8948181922F90958923818361
:1005400078948DE743E050E0815021F1DA01119772
:10055000F1F730813223C1F3F894828189238283B9
:100560008181822B81837894ABE7B7E01197F1F713
:10057000F89481819823918383E191E00197F1F7C9
:100580008081282381E009F080E07894E3E6F6E0BA
:100590003197F1F708954F925F926F927F928F9209
:1005A0009F92AF92BF92CF92DF92EF92FF920F9302
:1005B0001F93CF93DF93CDB7DEB729970FB6F8948B
:1005C000DEBF0FBECDBF8C0180919D0190919E0139
:1005D0000E949402882309F481C0C0909D01D090AC
:1005E0009E0140E065E5C6010E9460027801580165
:1005F00028E0A20EB11CF70161917F0140E0C60125
:100600000E946002AE14BF04B1F740E06EEB80912F
:100610009D0190919E010E946002AE014F5F5F4F6D
:100620007A015E015AE0A50EB11C270180909D0160
:1006300090909E0178E0672E712CD12CCC24C3942D
:10064000C4010E940D028111DC28CC0C81E0681AE3
:100650007108B1F7F701D1927F01AE16BF0631F7ED
:1006600080919D0190919E010E9494028130B1F58C
:1006700068E0C2010E94F501998589132FC02A8183
:1006800030E0A901542F4427550F550F550F89818C
:10069000F8E08F9FC00111249A01282B392BF80113
:1006A00080818031C9F4688570E08F81AB01481B7F
:1006B0005109CA019695982F8827979587950E948A
:1006C000130CCB014097207F53E0220F331F5A9524
:1006D000E1F7820F931F04C0C90102C080E894EEC5
:1006E00029960FB6F894DEBF0FBECDBFDF91CF9134
:1006F0001F910F91FF90EF90DF90CF90BF90AF9040
:100700009F908F907F906F905F904F900895CF93C0
:10071000DF93EC0160E08E810E949C0061E08E819D
:100720000E949C0060E08E810E949C008BE891E01A
:100730000197F1F7DF91CF910895CF92DF92EF9279
:10074000FF920F931F93CF93DF936C017C0187E09F
:10075000E80EF11CC0E0D0E0062F10E0B8010C2E2E
:1007600002C0759567950A94E2F76170F70181916F
:100770007F010E949C002196C430D10579F7C60103
:10078000DF91CF911F910F91FF90EF90DF90CF906D
:100790000C948703CF92DF92EF92FF920F931F93F7
:1007A000CF93DF93EC01F62E642F8C810E949C0086
:1007B0008D818F3F19F060E00E949C008F850F2D86
:1007C00010E084FF25C06E0187E0C80ED11CE12C2B
:1007D000F12CB8010E2C02C0759567950A94E2F7CA
:1007E0006170F60181916F010E949C00FFEFEF1A8A
:1007F000FF0A88E0E816F10461F7CE01DF91CF919E
:100800001F910F91FF90EF90DF90CF900C94870392
:10081000B80184E0759567958A95E1F7CE010E944D
:100820009D036F2DCE01DF91CF911F910F91FF900E
:10083000EF90DF90CF900C949D0340E0682F8BEAFF
:1008400091E00C94CA03CF93DF93823028F090910B
:10085000BA0198609093BA018093BE011092BF01D3
:1008600080E48093C00180E18093C10180E58093A2
:10087000C20161E08091AF010E94E9008091B00166
:100880008F3F19F061E00E94E90061E08091B101C1
:100890000E94E900CBEAD1E09E012B5A31408091C1
:1008A000BA0184FD03C084E090E002C088E090E0DB
:1008B0002196281739072CF461E08E810E94E90007
:1008C000EBCF8BE39DE00197F1F760E08091AF0102
:1008D0000E949C0060E08091B1010E949C00809188
:1008E000B0018F3F19F060E00E949C008091BA0136
:1008F00084FD20C063E08BEA91E00E949D03CBE47D
:10090000D6E4CE010197F1F763E08BEA91E00E9413
:100910009D032197F1F763E08BEA91E00E949D032C
:1009200083E592E00197F1F762E08BEA91E00E94A3
:100930009D0315C080620E941D048BE496E401971C
:10094000F1F78091BA0180620E941D0483E592E074
:100950000197F1F78091BA0180620E941D04809195
:10096000BA0180620E941D0484E08093BB018CE088
:100970000E941D0481E00E941D048BE39FE101970A
:10098000F1F782E08093BC0186E0DF91CF910C9477
:100990001D04643008F063E09091BE01691710F007
:1009A0006FEF690FE62FF0E0E555FE4F9489890F50
:1009B00080680C941D0441E00E94CA0381E090E02D
:1009C00008950F931F93CF93DF938B01877028E0D7
:1009D000829FC001112480640E941D04E801085F09
:1009E0001F4F69918BEA91E00E94DB04C017D10789
:1009F000C1F7DF91CF911F910F910895089580E085
:100A000090E00895009769F0FC0101900020E9F75B
:100A10003197AF01481B590BBC018BEA91E00C9454
:100A2000CB0180E090E008950C9402058F929F9294
:100A3000AF92BF920F931F93CF93DF93CDB7DEB7E3
:100A4000A1970FB6F894DEBF0FBECDBF19A24230FA
:100A500008F44AE08E010F5D1F4F842E912CA12CCB
:100A6000B12CA50194010E94270CE62FB901CA01FF
:100A700001501109EA3014F4E05D01C0E95CD801CD
:100A8000EC93232B242B252B61F7C8010E94020530
:100A9000A1960FB6F894DEBF0FBECDBFDF91CF9108
:100AA0001F910F91BF90AF909F908F9008958F925C
:100AB0009F92AF92BF92CF92DF92EF92FF920F93ED
:100AC0001F93CF93DF936B017C01142F9B01AC012B
:100AD0000E940E0C882319F082E391E027C04601A2
:100AE0005701E894B7F82FEF3FEF4FE75FE7C501F5
:100AF000B4010E940E0C81110DC02FEF3FEF4FE7A4
:100B00005FE7C501B4010E943D0A18161CF486E394
:100B100091E00CC02FEF3FEF4FE75FE4C701B60154
:100B20000E949C0B181684F48AE391E0DF91CF9128
:100B30001F910F91FF90EF90DF90CF90BF90AF90FB
:100B40009F908F900C9402052FEF3FEF4FE75FECE3
:100B5000C701B6010E943D0A87FDE6CF20E030E0E4
:100B6000A901C701B6010E943D0A87FF0DC041E0FF
:100B70006DE28BEA91E00E94CA03F7FAF094F7F86D
:100B8000F094C1E0D0E002C0C0E0D0E000E060E05E
:100B900070E080E09FE3101741F020E030E040E299
:100BA00051E40E94420A0F5FF6CFA70196010E940E
:100BB000D1096B017C010E94BB0A4B015C014AE038
:100BC0000E941605C80FD91F1123B9F1C501B40140
:100BD0000E94EA0A9B01AC01C701B6010E94D0093C
:100BE0006B017C0141E06EE28BEA91E00E94CA0356
:100BF000219620E030E040E251E4C701B6010E94B6
:100C0000A10B4B015C010E94BB0A6B01E12CF12C92
:100C10004AE0C701B6010E941605C80FD91FC701D7
:100C2000B6010E94EA0A9B01AC01C501B4010E9411
:100C3000D0096B017C011150E1F6CE01DF91CF911B
:100C40001F910F91FF90EF90DF90CF90BF90AF90EA
:100C50009F908F9008958F929F92AF92BF92CF9264
:100C6000DF92EF92FF920F931F93CF93DF937C015C
:100C7000A62EE0919D01F0919E01138615861486A3
:100C8000DF011B9633961E92AE17BF07E1F7B12C1A
:100C900088248394C0919D01D0919E018D858111FE
:100CA00063C0CE010E949402882309F45DC040E035
:100CB00060EFCE010E94600201E0C12C912C11E096
:100CC000CE010E940D02D82ECE010E940D0291E0AD
:100CD000D91203C08130B1F434C02C2D30E0D812C9
:100CE0001BC08B85181738F4FE01E20FF31F8381B8
:100CF000802341F402C0811729F0D12C193058F417
:100D00001C8709C0FE01EC0DF11D8381802B8383BC
:100D1000DD24D39409C0912EFE01E20FF31F9381CD
:100D2000802F8095892383836D2DCE010E9431020F
:100D30001F5F000F11F4C39401E0E7E0EC1508F029
:100D4000BFCF113488F09B86911001C08D868B81B6
:100D5000882351F0FE013396D7012B9681918D9314
:100D6000EC17FD07D9F705C01B861D861C8680E0A1
:100D700010C0AB100AC067E0C7010E94F501F7017F
:100D80009781891302C081E004C0B394AB1478F357
:100D900081CFDF91CF911F910F91FF90EF90DF9066
:100DA000CF90BF90AF909F908F9008950E94630C5A
:100DB0001F920F920FB60F9211242F933F938F9390
:100DC0009F93AF93BF9380918F0190919001A091D9
:100DD0009101B091920130918E0123E0230F2D37C4
:100DE00020F40196A11DB11D05C026E8230F02962F
:100DF000A11DB11D20938E0180938F0190939001CE
:100E0000A0939101B09392018091930190919401EC
:100E1000A0919501B09196010196A11DB11D8093FD
:100E2000930190939401A0939501B0939601BF9183
:100E3000AF919F918F913F912F910F900FBE0F9087
:100E40001F901895CF93DF93CDB7DEB728970FB6D5
:100E5000F894DEBF0FBECDBF0E94250182E00E9444
:100E6000230468E171E080E00E94E10460E171E048
:100E700081E00E94E10468E071E082E00E94E10408
:100E800060E071E083E00E94E10460E084E00E94A1
:100E9000C9048EE391E00E94140561E082E00E94A3
:100EA000C90488E491E00E94140568EE73E080E0D4
:100EB00090E00E9485010E94250181E00E941D04AE
:100EC0008BE39FE10197F1F790E0292E90E0392E16
:100ED00020E4C22E2DE0D22E23E0E22EF12C0E943F
:100EE000BF0100918A0110918B0120918C013091FA
:100EF0008D01DC01CB01801B910BA20BB30B813D5B
:100F00009740A105B10508F4B0C00E94BF016093ED
:100F10008A0170938B0180938C0190938D01809155
:100F20009D0190919E010E94940240E06CEC8091A2
:100F30009D0190919E010E9460024091970164E49E
:100F400080919D0190919E010E9460028091990183
:100F50008823D9F1E0919801E950E33040F4F0E0C2
:100F6000EE0FFF1FE45DFE4F0081118102C00EEE07
:100F700012E080919A01882311F1809197018111EB
:100F80001EC00E94BF014B015C012801110F6608C1
:100F9000770880919D0190919E010E940D02813001
:100FA000A1F00E94BF01DC01CB0184199509A609BB
:100FB000B70988159905AA05BB0558F306C0B801FD
:100FC000110F880B990B0E94850160E0CE010196FC
:100FD0000E942B06811105C060E070E08EEF92EC5C
:100FE00014C0CE0101960E94CB028138A4EE9A076C
:100FF0009CF3BC01990F880B990B0E94EC0A20E02E
:1010000030E040E05CE30E94A10B609386017093A6
:101010008701809388019093890161E0CE01019658
:101020000E942B06811105C060E070E08EEF92EC0B
:1010300014C0CE0101960E94CB028138B4EE9B070A
:101040009CF3BC01990F880B990B0E94EC0A20E0DD
:1010500030E040E05CE30E94A10B6093820170935A
:10106000830180938401909385010E94BF010091C8
:101070007E0110917F012091800130918101DC017E
:10108000CB01801B910BA20BB30B893C9105A105F1
:10109000B10508F477C00E94BF0160937E01709390
:1010A0007F01809380019093810160E080E00E9445
:1010B000C90486E591E00E94140560918601709153
:1010C0008701809188019091890142E00E94570533
:1010D00089E591E00E94140560917201709173019D
:1010E00080917401909175010E94BB0A70E080E0CC
:1010F00090E04AE00E9416058CE591E00E941405FC
:1011000061E080E00E94C9048EE591E00E94140530
:101110006091820170918301809184019091850199
:1011200042E00E9457058CE591E00E9414058091F1
:101130007101882341F062E08BEA91E00E94DB04B8
:101140001092710108C063E08BEA91E00E94DB0419
:1011500081E0809371018CE591E00E9414058091FB
:101160007001882341F060E08BEA91E00E94DB048B
:101170001092700107C08CE591E00E94140581E097
:10118000809370010E94BF0100917A0110917B0150
:1011900020917C0130917D01DC01CB01801B910B02
:1011A000A20BB30B853F9140A105B10508F489C09E
:1011B0000E94BF0160937A0170937B0180937C0150
:1011C00090937D01209186013091870140918801A3
:1011D0005091890160E070E082E892E40E94D009B9
:1011E0004B015C010E94B40A0091760110917701D5
:1011F0002091780130917901DC01CB01800F911FA2
:10120000A21FB31F81342DE0920723E0A207B1058E
:101210004CF48093760190937701A0937801B0937A
:10122000790108C0C0927601D0927701E0927801EE
:10123000F09279018091760190917701A0917801E7
:10124000B091790188319C4FAF4FBF4F64F488E172
:101250009CEFAFEFBFEF8093760190937701A0935F
:101260007801B09379016091760170917701809156
:101270007801909179010E94EC0A26EA3BE944E466
:101280005BE30E94A10BA50194010E94D1094B01CF
:101290005C0120E030E0A9010E943D0A87FD09C001
:1012A0008092720190927301A0927401B0927501C4
:1012B00008C0109272011092730110927401109282
:1012C00075012114310409F40ACE0E94000007CEF2
:1012D00060E088E00E94E900E2ECF0E0E491E09355
:1012E0006201EEEAF0E0E491F0E0EE0FFF1FE85952
:1012F000FF4F8591949190936401809363011092C4
:101300006D0110926F0110926E01EDE6F1E0129204
:1013100081E0E536F807D9F782E691E090939E01E7
:1013200080939D0110929B0110929C011092970155
:1013300089E08093980181E08093990180939A01DC
:101340001092AA011092A9011092AE011092AD0163
:1013500084E291E09093AC018093AB0182E08093B2
:10136000AF018FEF8093B00183E08093B10184E0FF
:101370008093B20185E08093B30186E08093B4014D
:1013800087E08093B5011092B6011092B7011092D8
:10139000B8011092B9011092BA0181E00C942304B3
:1013A0005058BB27AA270E94E8090C94620B0E94A0
:1013B000540B38F00E945B0B20F039F49F3F19F476
:1013C00026F40C94510B0EF4E095E7FB0C944B0BB8
:1013D000E92F0E94730B58F3BA176207730784074B
:1013E000950720F079F4A6F50C94950B0EF4E09592
:1013F0000B2EBA2FA02D0B01B90190010C01CA01CF
:10140000A0011124FF27591B99F0593F50F4503E79
:1014100068F11A16F040A22F232F342F4427585F6B
:10142000F3CF469537952795A795F0405395C9F783
:101430007EF41F16BA0B620B730B840BBAF091503B
:10144000A1F0FF0FBB1F661F771F881FC2F70EC0DA
:10145000BA0F621F731F841F48F4879577956795AD
:10146000B795F7959E3F08F0B0CF9395880F08F099
:101470009927EE0F9795879508950E94270B08F4FA
:1014800081E008950E94560A0C94620B0E945B0B47
:1014900058F00E94540B40F029F45F3F29F00C945F
:1014A0004B0B51110C94960B0C94510B0E94730B27
:1014B00068F39923B1F3552391F3951B550BBB2783
:1014C000AA2762177307840738F09F5F5F4F220FC8
:1014D000331F441FAA1FA9F335D00E2E3AF0E0E8BF
:1014E00032D091505040E695001CCAF72BD0FE2F09
:1014F00029D0660F771F881FBB1F2617370748079D
:10150000AB07B0E809F0BB0B802DBF01FF27935854
:101510005F4F3AF09E3F510578F00C944B0B0C94C2
:10152000960B5F3FE4F3983ED4F3869577956795E5
:10153000B795F7959F5FC9F7880F911D9695879589
:1015400097F90895E1E0660F771F881FBB1F6217A8
:1015500073078407BA0720F0621B730B840BBA0B66
:10156000EE1F88F7E09508950E94BB0A6894B111B8
:101570000C94960B08950E947B0B88F09F5798F06F
:10158000B92F9927B751B0F0E1F0660F771F881F88
:10159000991F1AF0BA95C9F714C0B13091F00E94A2
:1015A000950BB1E008950C94950B672F782F882741
:1015B000B85F39F0B93FCCF3869577956795B395C9
:1015C000D9F73EF490958095709561957F4F8F4F38
:1015D0009F4F0895E89409C097FB3EF4909580953D
:1015E000709561957F4F8F4F9F4F9923A9F0F92FE9
:1015F00096E9BB279395F695879577956795B79567
:10160000F111F8CFFAF4BB0F11F460FF1BC06F5F4C
:101610007F4F8F4F9F4F16C0882311F096E911C05E
:10162000772321F09EE8872F762F05C0662371F07F
:1016300096E8862F70E060E02AF09A95660F771F93
:10164000881FDAF7880F9695879597F90895990F6F
:101650000008550FAA0BE0E8FEEF16161706E8077C
:10166000F907C0F012161306E407F50798F0621B9D
:10167000730B840B950B39F40A2661F0232B242B72
:10168000252B21F408950A2609F4A140A6958FEF91
:10169000811D811D089597F99F6780E870E060E0E3
:1016A00008959FEF80EC089500240A9416161706FB
:1016B00018060906089500240A9412161306140643
:1016C00005060895092E0394000C11F4882352F0A6
:1016D000BB0F40F4BF2B11F460FF04C06F5F7F4F5E
:1016E0008F4F9F4F089557FD9058440F551F59F045
:1016F0005F3F71F04795880F97FB991F61F09F3FFF
:1017000079F087950895121613061406551FF2CF27
:101710004695F1DF08C0161617061806991FF1CF77
:1017200086957105610508940895E894BB2766279E
:101730007727CB0197F908950E94270B08F48FEFC4
:1017400008950E94B40B0C94620B0E94540B38F065
:101750000E945B0B20F0952311F00C944B0B0C9422
:10176000510B11240C94960B0E94730B70F3959FF0
:10177000C1F3950F50E0551F629FF001729FBB2788
:10178000F00DB11D639FAA27F00DB11DAA1F649F24
:101790006627B00DA11D661F829F2227B00DA11DD7
:1017A000621F739FB00DA11D621F839FA00D611D5D
:1017B000221F749F3327A00D611D231F849F600D7E
:1017C000211D822F762F6A2F11249F5750409AF0A7
:1017D000F1F088234AF0EE0FFF1FBB1F661F771F33
:1017E000881F91505040A9F79E3F510580F00C94FE
:1017F0004B0B0C94960B5F3FE4F3983ED4F3869525
:1018000077956795B795F795E7959F5FC1F7FE2B9D
:10181000880F911D9695879597F908950E94270B3B
:10182000880B990B089597FB072E16F4009407D0A8
:1018300077FD09D00E94490C07FC05D03EF4909535
:1018400081959F4F0895709561957F4F0895A1E20E
:101850001A2EAA1BBB1BFD010DC0AA1FBB1FEE1F2A
:10186000FF1FA217B307E407F50720F0A21BB30B75
:10187000E40BF50B661F771F881F991F1A9469F7F1
:1018800060957095809590959B01AC01BD01CF014D
:101890000895AA1BBB1B51E107C0AA1FBB1FA617B7
:1018A000B70710F0A61BB70B881F991F5A95A9F709
:1018B00080959095BC01CD010895EE0FFF1F059016
:1018C000F491E02D099481E090E0F8940C94680C78
:0418D000F894FFCFBA
:1018D400070604040C1C00000010181F030100007C
:1018E4001F1111111111111F03060C1F03161C1EC9
:1018F40000000000DB04CB01FF04FE045E00BC001A
:1019040077016E616E00696E66006F766600424113
:1019140042494E47544F4E004558504552494D4553
:101924004E54414C21004D3A002025002000423AFB
:021934000000B1
:107800000C94343C0C94513C0C94513C0C94513CE1
:107810000C94513C0C94513C0C94513C0C94513CB4
:107820000C94513C0C94513C0C94513C0C94513CA4
:107830000C94513C0C94513C0C94513C0C94513C94
:107840000C94513C0C94513C0C94513C0C94513C84
:107850000C94513C0C94513C0C94513C0C94513C74
:107860000C94513C0C94513C11241FBECFEFD8E036
:10787000DEBFCDBF11E0A0E0B1E0ECE9FFE702C060
:1078800005900D92A230B107D9F712E0A2E0B1E065
:1078900001C01D92AD30B107E1F70E942D3D0C945F
:1078A000CC3F0C94003C982F959595959595959582
:1078B000905D8F708A307CF0282F295A8091C0000B
:1078C00085FFFCCF9093C6008091C00085FFFCCF60
:1078D0002093C6000895282F205DF0CF982F809127
:1078E000C00085FFFCCF9093C6000895EF92FF92F1
:1078F0000F931F93EE24FF2487018091C00087FD22
:1079000017C00894E11CF11C011D111D81E4E8164B
:1079100082E4F8068FE0080780E0180770F3E09132
:107920000401F091050109958091C00087FFE9CF1E
:107930008091C6001F910F91FF90EF9008950E94D3
:10794000763C982F8091C00085FFFCCF9093C600B5
:1079500091362CF490330CF09053892F089597555D
:10796000892F08951F930E949F3C182F0E949F3CCF
:107970001295107F810F1F9108951F93182F882350
:1079800021F00E94763C1150E1F71F9108951F935A
:10799000182F0E94763C803249F0809103018F5F5E
:1079A000809303018530C1F01F9108958091C0003C
:1079B00085FFFCCF84E18093C6008091C00085FFE5
:1079C000FCCF1093C6008091C00085FFFCCF80E102
:1079D0008093C6001F910895E0910401F091050184
:1079E00009951F9108950E94763C803241F0809164
:1079F00003018F5F80930301853081F008958091AA
:107A0000C00085FFFCCF84E18093C6008091C00058
:107A100085FFFCCF80E18093C6000895E0910401CA
:107A2000F09105010995089540E951E08823A1F0FE
:107A30002D9A28EE33E0FA013197F1F721503040CA
:107A4000D1F72D9828EE33E0FA013197F1F7215064
:107A50003040D1F7815061F708953F924F925F9285
:107A60006F927F928F929F92AF92BF92CF92DF924E
:107A7000EF92FF920F931F93CF93DF93000080E16B
:107A80008093C4001092C50088E18093C10086E015
:107A90008093C2005098589A259A81E00E94143D24
:107AA00024E1F22E9EE1E92E85E9D82E0FE0C02ECA
:107AB00010E1B12EAA24A394B1E49B2EA6E58A2E50
:107AC000F2E57F2EE0E26E2E79E4572E63E5462E36
:107AD00050E5352E0E94763C8033B1F18133B9F107
:107AE000803409F46FC0813409F476C0823409F41B
:107AF00085C0853409F488C0803531F1823521F1A3
:107B0000813511F1853509F485C0863509F48DC0BC
:107B1000843609F496C0843709F403C1853709F423
:107B200072C1863709F466C0809103018F5F80932C
:107B30000301853079F6E0910401F0910501099582
:107B40000E94763C803351F60E94F33CC3CF0E94E2
:107B5000763C803249F78091C00085FFFCCFF092DF
:107B6000C6008091C00085FFFCCF9092C600809136
:107B7000C00085FFFCCF8092C6008091C00085FFC9
:107B8000FCCF7092C6008091C00085FFFCCF609250
:107B9000C6008091C00085FFFCCF5092C600809146
:107BA000C00085FFFCCF4092C6008091C00085FFD9
:107BB000FCCF3092C6008091C00085FFFCCFB09210
:107BC000C60088CF0E94763C863808F4BDCF0E945C
:107BD000763C0E94F33C7ECF0E94763C803809F4CC
:107BE0009CC0813809F40BC1823809F43CC1883942
:107BF00009F48FC080E00E94C73C6CCF84E10E94F2
:107C0000BD3C0E94F33C66CF85E00E94BD3C0E94D3
:107C1000F33C60CF0E94763C809306010E94763C44
:107C2000809307010E94F33C55CF0E94763C80333D
:107C300009F41DC183E00E94BD3C80E00E94C73C66
:107C400049CF0E94763C809309020E94763C809343
:107C5000080280910C028E7F80930C020E94763C79
:107C6000853409F415C18091080290910902892B8D
:107C700089F000E010E00E94763CF801E85FFE4FDA
:107C800080830F5F1F4F80910802909109020817AF
:107C9000190788F30E94763C803209F045CF809125
:107CA0000C0280FF01C16091060170910701660F0F
:107CB000771F7093070160930601A0910802B091AD
:107CC00009021097C9F0E8E0F1E09B01AD014E0F09
:107CD0005F1FF999FECF32BD21BD819180BDFA9A17
:107CE000F99A2F5F3F4FE417F50799F76A0F7B1F4B
:107CF00070930701609306018091C00085FFFCCF5F
:107D0000F092C6008091C00085FFFCCFB092C60003
:107D1000E1CE83E00E94C73CDDCE82E00E94C73CFA
:107D2000D9CE0E94763C809309020E94763C8093D3
:107D300008028091060190910701880F991F909386
:107D40000701809306010E94763C853409F4A6C0A1
:107D500080910C028E7F80930C020E94763C8032D0
:107D600009F0B8CE8091C00085FFFCCFF092C6002C
:107D7000609108027091090261157105B9F140E046
:107D800050E080910C02A82FA170B82FB27011C0E2
:107D9000BB2309F45CC0E0910601F0910701319624
:107DA000F0930701E09306014F5F5F4F46175707B7
:107DB000E8F4AA2369F3F999FECF209106013091E6
:107DC000070132BD21BDF89A90B58091C00085FFB2
:107DD000FCCF9093C6002F5F3F4F30930701209355
:107DE00006014F5F5F4F4617570718F38091C00099
:107DF00085FDE5CE8091C00085FFF8CFE0CE81E023
:107E00000E94C73C67CE0E94763C803209F08CCE3F
:107E10008091C00085FFFCCFF092C6008091C00029
:107E200085FFFCCFE092C6008091C00085FFFCCFAB
:107E3000D092C6008091C00085FFFCCFC092C600E2
:107E40008091C00085FFFCCFB092C60043CEE09188
:107E50000601F091070194918091C00085FFFCCF4D
:107E60009093C6009CCF80E10E94C73C33CE0E9415
:107E7000763C0E94763C182F0E94763C112309F430
:107E800083C0113009F484C08FE00E94C73C22CE29
:107E900080910C02816080930C02E5CE80910C02EF
:107EA000816080930C0259CF809107018823880F4D
:107EB000880B8A2180930B02809106019091070123
:107EC000880F991F90930701809306018091080203
:107ED00080FF09C080910802909109020196909359
:107EE000090280930802F894F999FECF1127E091D6
:107EF0000601F0910701C8E0D1E08091080290915D
:107F00000902103091F40091570001700130D9F34B
:107F100003E000935700E89500915700017001308D
:107F2000D9F301E100935700E89509901990009169
:107F3000570001700130D9F301E000935700E89534
:107F40001395103498F011270091570001700130FB
:107F5000D9F305E000935700E895009157000170B0
:107F60000130D9F301E100935700E895329602976A
:107F700009F0C7CF103011F00296E5CF112480919F
:107F8000C00085FFB9CEBCCE8EE10E94C73CA2CD19
:0C7F900085E90E94C73C9ECDF894FFCF0D
:027F9C00800063
:040000030000780081
:00000001FF
